{
  "contractName": "SignUpPool",
  "abi": [
    {
      "anonymous": false,
      "inputs": [
        {
          "indexed": false,
          "internalType": "uint256",
          "name": "PoolId",
          "type": "uint256"
        }
      ],
      "name": "NewPoolActivated",
      "type": "event"
    },
    {
      "anonymous": false,
      "inputs": [
        {
          "indexed": false,
          "internalType": "uint256",
          "name": "PoolId",
          "type": "uint256"
        },
        {
          "indexed": false,
          "internalType": "address",
          "name": "UserAddress",
          "type": "address"
        }
      ],
      "name": "NewSignUp",
      "type": "event"
    },
    {
      "anonymous": false,
      "inputs": [
        {
          "indexed": true,
          "internalType": "address",
          "name": "previousOwner",
          "type": "address"
        },
        {
          "indexed": true,
          "internalType": "address",
          "name": "newOwner",
          "type": "address"
        }
      ],
      "name": "OwnershipTransferred",
      "type": "event"
    },
    {
      "anonymous": false,
      "inputs": [
        {
          "indexed": false,
          "internalType": "address",
          "name": "account",
          "type": "address"
        }
      ],
      "name": "Paused",
      "type": "event"
    },
    {
      "anonymous": false,
      "inputs": [
        {
          "indexed": false,
          "internalType": "uint256",
          "name": "PoolId",
          "type": "uint256"
        }
      ],
      "name": "PoolActivated",
      "type": "event"
    },
    {
      "anonymous": false,
      "inputs": [
        {
          "indexed": false,
          "internalType": "uint256",
          "name": "PoolId",
          "type": "uint256"
        }
      ],
      "name": "PoolDeactivated",
      "type": "event"
    },
    {
      "anonymous": false,
      "inputs": [
        {
          "indexed": false,
          "internalType": "uint256",
          "name": "Amount",
          "type": "uint256"
        },
        {
          "indexed": false,
          "internalType": "address",
          "name": "From",
          "type": "address"
        },
        {
          "indexed": false,
          "internalType": "address",
          "name": "Token",
          "type": "address"
        }
      ],
      "name": "TransferIn",
      "type": "event"
    },
    {
      "anonymous": false,
      "inputs": [
        {
          "indexed": false,
          "internalType": "uint256",
          "name": "Amount",
          "type": "uint256"
        },
        {
          "indexed": false,
          "internalType": "address",
          "name": "From",
          "type": "address"
        }
      ],
      "name": "TransferInETH",
      "type": "event"
    },
    {
      "anonymous": false,
      "inputs": [
        {
          "indexed": false,
          "internalType": "uint256",
          "name": "Amount",
          "type": "uint256"
        },
        {
          "indexed": false,
          "internalType": "address",
          "name": "To",
          "type": "address"
        },
        {
          "indexed": false,
          "internalType": "address",
          "name": "Token",
          "type": "address"
        }
      ],
      "name": "TransferOut",
      "type": "event"
    },
    {
      "anonymous": false,
      "inputs": [
        {
          "indexed": false,
          "internalType": "uint256",
          "name": "Amount",
          "type": "uint256"
        },
        {
          "indexed": false,
          "internalType": "address",
          "name": "To",
          "type": "address"
        }
      ],
      "name": "TransferOutETH",
      "type": "event"
    },
    {
      "anonymous": false,
      "inputs": [
        {
          "indexed": false,
          "internalType": "address",
          "name": "account",
          "type": "address"
        }
      ],
      "name": "Unpaused",
      "type": "event"
    },
    {
      "inputs": [
        {
          "internalType": "uint256",
          "name": "_poolId",
          "type": "uint256"
        }
      ],
      "name": "ActivatePool",
      "outputs": [],
      "stateMutability": "nonpayable",
      "type": "function"
    },
    {
      "inputs": [],
      "name": "CreateNewPool",
      "outputs": [],
      "stateMutability": "nonpayable",
      "type": "function"
    },
    {
      "inputs": [
        {
          "internalType": "uint256",
          "name": "_poolId",
          "type": "uint256"
        }
      ],
      "name": "DeactivatePool",
      "outputs": [],
      "stateMutability": "nonpayable",
      "type": "function"
    },
    {
      "inputs": [],
      "name": "Fee",
      "outputs": [
        {
          "internalType": "uint256",
          "name": "",
          "type": "uint256"
        }
      ],
      "stateMutability": "view",
      "type": "function"
    },
    {
      "inputs": [],
      "name": "FeeTokenAddress",
      "outputs": [
        {
          "internalType": "address",
          "name": "",
          "type": "address"
        }
      ],
      "stateMutability": "view",
      "type": "function"
    },
    {
      "inputs": [],
      "name": "GovernerContract",
      "outputs": [
        {
          "internalType": "address",
          "name": "",
          "type": "address"
        }
      ],
      "stateMutability": "view",
      "type": "function"
    },
    {
      "inputs": [],
      "name": "IsPayble",
      "outputs": [
        {
          "internalType": "bool",
          "name": "",
          "type": "bool"
        }
      ],
      "stateMutability": "view",
      "type": "function"
    },
    {
      "inputs": [],
      "name": "PoolsCount",
      "outputs": [
        {
          "internalType": "uint256",
          "name": "",
          "type": "uint256"
        }
      ],
      "stateMutability": "view",
      "type": "function"
    },
    {
      "inputs": [],
      "name": "SwitchIsPayble",
      "outputs": [],
      "stateMutability": "nonpayable",
      "type": "function"
    },
    {
      "inputs": [
        {
          "internalType": "address",
          "name": "_to",
          "type": "address"
        }
      ],
      "name": "WithdrawERC20Fee",
      "outputs": [],
      "stateMutability": "nonpayable",
      "type": "function"
    },
    {
      "inputs": [
        {
          "internalType": "address payable",
          "name": "_to",
          "type": "address"
        }
      ],
      "name": "WithdrawETHFee",
      "outputs": [],
      "stateMutability": "nonpayable",
      "type": "function"
    },
    {
      "inputs": [
        {
          "internalType": "uint256",
          "name": "",
          "type": "uint256"
        }
      ],
      "name": "isPoolActive",
      "outputs": [
        {
          "internalType": "bool",
          "name": "",
          "type": "bool"
        }
      ],
      "stateMutability": "view",
      "type": "function"
    },
    {
      "inputs": [],
      "name": "owner",
      "outputs": [
        {
          "internalType": "address",
          "name": "",
          "type": "address"
        }
      ],
      "stateMutability": "view",
      "type": "function"
    },
    {
      "inputs": [],
      "name": "pause",
      "outputs": [],
      "stateMutability": "nonpayable",
      "type": "function"
    },
    {
      "inputs": [],
      "name": "paused",
      "outputs": [
        {
          "internalType": "bool",
          "name": "",
          "type": "bool"
        }
      ],
      "stateMutability": "view",
      "type": "function"
    },
    {
      "inputs": [],
      "name": "renounceOwnership",
      "outputs": [],
      "stateMutability": "nonpayable",
      "type": "function"
    },
    {
      "inputs": [
        {
          "internalType": "address",
          "name": "_token",
          "type": "address"
        },
        {
          "internalType": "uint256",
          "name": "_amount",
          "type": "uint256"
        }
      ],
      "name": "setERC20Fee",
      "outputs": [],
      "stateMutability": "nonpayable",
      "type": "function"
    },
    {
      "inputs": [
        {
          "internalType": "uint256",
          "name": "_amount",
          "type": "uint256"
        }
      ],
      "name": "setEthFee",
      "outputs": [],
      "stateMutability": "nonpayable",
      "type": "function"
    },
    {
      "inputs": [
        {
          "internalType": "address",
          "name": "_address",
          "type": "address"
        }
      ],
      "name": "setGovernerContract",
      "outputs": [],
      "stateMutability": "nonpayable",
      "type": "function"
    },
    {
      "inputs": [
        {
          "internalType": "address",
          "name": "newOwner",
          "type": "address"
        }
      ],
      "name": "transferOwnership",
      "outputs": [],
      "stateMutability": "nonpayable",
      "type": "function"
    },
    {
      "inputs": [],
      "name": "unpause",
      "outputs": [],
      "stateMutability": "nonpayable",
      "type": "function"
    },
    {
      "stateMutability": "payable",
      "type": "receive"
    },
    {
      "inputs": [
        {
          "internalType": "uint256",
          "name": "_poolId",
          "type": "uint256"
        }
      ],
      "name": "SignUp",
      "outputs": [],
      "stateMutability": "payable",
      "type": "function"
    }
  ],
  "bytecode": "0x608060405234801561001057600080fd5b506000610024640100000000610093810204565b60008054600160a060020a031916600160a060020a0383169081178255604051929350917f8be0079c531659141344cd1fd0a4f28419497f9722a3daafe3b4186f6b6457e0908290a3506000805460a060020a60ff021916905560018054600160a860020a0319169055610097565b3390565b6117c6806100a66000396000f3fe60806040526004361061013d5760003560e060020a900480638456cb59116100af578063b29e825611610073578063b29e825614610398578063b5f98b8e146103ad578063bbbaf8c8146103c2578063bef7a2f0146103ec578063c41508a814610401578063f2fde38b146104345761015a565b80638456cb59146102fc5780638585117b146103115780638da5cb5b1461033b578063991e979a14610350578063aac5da5c146103835761015a565b80633f6738a9116101015780633f6738a9146102225780634ea7b2c21461024c5780635c975abb14610261578063668189671461028a578063715018a6146102bd5780637cca7bfb146102d25761015a565b8063026de3361461015f5780630cd8e965146101865780632417a19b146101b75780632a9565f9146101d45780633f4ba83a1461020d5761015a565b3661015a5760005460a060020a900460ff1661015857600080fd5b005b600080fd5b34801561016b57600080fd5b50610174610467565b60408051918252519081900360200190f35b34801561019257600080fd5b5061019b61046d565b60408051600160a060020a039092168252519081900360200190f35b610158600480360360208110156101cd57600080fd5b503561047c565b3480156101e057600080fd5b50610158600480360360408110156101f757600080fd5b50600160a060020a0381351690602001356105bf565b34801561021957600080fd5b50610158610664565b34801561022e57600080fd5b506101586004803603602081101561024557600080fd5b50356106e1565b34801561025857600080fd5b50610158610776565b34801561026d57600080fd5b50610276610842565b604080519115158252519081900360200190f35b34801561029657600080fd5b50610158600480360360208110156102ad57600080fd5b5035600160a060020a0316610852565b3480156102c957600080fd5b506101586108f4565b3480156102de57600080fd5b50610158600480360360208110156102f557600080fd5b50356109b0565b34801561030857600080fd5b50610158610b28565b34801561031d57600080fd5b506101586004803603602081101561033457600080fd5b5035610ba3565b34801561034757600080fd5b5061019b610d17565b34801561035c57600080fd5b506101586004803603602081101561037357600080fd5b5035600160a060020a0316610d26565b34801561038f57600080fd5b50610158610dc1565b3480156103a457600080fd5b5061019b610e58565b3480156103b957600080fd5b50610276610e67565b3480156103ce57600080fd5b50610276600480360360208110156103e557600080fd5b5035610e77565b3480156103f857600080fd5b50610174610e8c565b34801561040d57600080fd5b506101586004803603602081101561042457600080fd5b5035600160a060020a0316610e92565b34801561044057600080fd5b506101586004803603602081101561045757600080fd5b5035600160a060020a0316610f2a565b60055481565b600154600160a060020a031681565b610484610842565b156104d9576040805160e560020a62461bcd02815260206004820152601060248201527f5061757361626c653a2070617573656400000000000000000000000000000000604482015290519081900360640190fd5b600081815260046020526040902054819060ff16610541576040805160e560020a62461bcd02815260206004820152601d60248201527f506f6f6c206973206e6f7420416374697665206f722043726561746564000000604482015290519081900360640190fd5b333214801561055657506105543361103f565b155b6105945760405160e560020a62461bcd02815260040180806020018281038252602381526020018061172e6023913960400191505060405180910390fd5b600354600160a060020a03166105b2576105ad8261104b565b6105bb565b6105bb826110e2565b5050565b6105c7610d17565b600160a060020a031633600160a060020a031614806105f05750600154600160a060020a031633145b610632576040805160e560020a62461bcd0281526020600482015260136024820152600080516020611771833981519152604482015290519081900360640190fd5b6002556003805473ffffffffffffffffffffffffffffffffffffffff1916600160a060020a0392909216919091179055565b61066c610d17565b600160a060020a031633600160a060020a031614806106955750600154600160a060020a031633145b6106d7576040805160e560020a62461bcd0281526020600482015260136024820152600080516020611771833981519152604482015290519081900360640190fd5b6106df611105565b565b6106e9610d17565b600160a060020a031633600160a060020a031614806107125750600154600160a060020a031633145b610754576040805160e560020a62461bcd0281526020600482015260136024820152600080516020611771833981519152604482015290519081900360640190fd5b6002556003805473ffffffffffffffffffffffffffffffffffffffff19169055565b61077e6111c5565b600160a060020a031661078f610d17565b600160a060020a0316146107db576040805160e560020a62461bcd0281526020600482018190526024820152600080516020611751833981519152604482015290519081900360640190fd5b60058054600090815260046020908152604091829020805460ff191660011790559154815190815290517f460a9e6b9025a58a440662afae6a23c6d526fd148717ccf3649235b70575e166929181900390910190a161083d60055460016111c9565b600555565b60015460a060020a900460ff1690565b61085a610d17565b600160a060020a031633600160a060020a031614806108835750600154600160a060020a031633145b6108c5576040805160e560020a62461bcd0281526020600482015260136024820152600080516020611771833981519152604482015290519081900360640190fd5b6001805473ffffffffffffffffffffffffffffffffffffffff1916600160a060020a0392909216919091179055565b6108fc6111c5565b600160a060020a031661090d610d17565b600160a060020a031614610959576040805160e560020a62461bcd0281526020600482018190526024820152600080516020611751833981519152604482015290519081900360640190fd5b60008054604051600160a060020a03909116907f8be0079c531659141344cd1fd0a4f28419497f9722a3daafe3b4186f6b6457e0908390a36000805473ffffffffffffffffffffffffffffffffffffffff19169055565b6109b86111c5565b600160a060020a03166109c9610d17565b600160a060020a031614610a15576040805160e560020a62461bcd0281526020600482018190526024820152600080516020611751833981519152604482015290519081900360640190fd5b806005548110610a6f576040805160e560020a62461bcd02815260206004820152600f60248201527f496e76616c696420506f6f6c2049440000000000000000000000000000000000604482015290519081900360640190fd5b60008281526004602052604090205460ff1615610ad6576040805160e560020a62461bcd02815260206004820152601660248201527f506f6f6c20697320416c72656164792041637469766500000000000000000000604482015290519081900360640190fd5b600082815260046020908152604091829020805460ff19166001179055815184815291517f0fc99ba436efa6fb2f50b2287984eebe37b2314a2bd81ea576ef9d4be0bd6a669281900390910190a15050565b610b30610d17565b600160a060020a031633600160a060020a03161480610b595750600154600160a060020a031633145b610b9b576040805160e560020a62461bcd0281526020600482015260136024820152600080516020611771833981519152604482015290519081900360640190fd5b6106df61122d565b610bab6111c5565b600160a060020a0316610bbc610d17565b600160a060020a031614610c08576040805160e560020a62461bcd0281526020600482018190526024820152600080516020611751833981519152604482015290519081900360640190fd5b806005548110610c62576040805160e560020a62461bcd02815260206004820152600f60248201527f496e76616c696420506f6f6c2049440000000000000000000000000000000000604482015290519081900360640190fd5b60008281526004602052604090205460ff16610cc8576040805160e560020a62461bcd02815260206004820152601860248201527f506f6f6c20697320416c726561647920496e6163746976650000000000000000604482015290519081900360640190fd5b600082815260046020908152604091829020805460ff19169055815184815291517ff924dd04accfc1837d0eeddb10bc7732e2057f5d916c0b5a21e8372393b244a29281900390910190a15050565b600054600160a060020a031690565b610d2e6111c5565b600160a060020a0316610d3f610d17565b600160a060020a031614610d8b576040805160e560020a62461bcd0281526020600482018190526024820152600080516020611751833981519152604482015290519081900360640190fd5b604051600160a060020a03821690303180156108fc02916000818181858888f193505050501580156105bb573d6000803e3d6000fd5b610dc96111c5565b600160a060020a0316610dda610d17565b600160a060020a031614610e26576040805160e560020a62461bcd0281526020600482018190526024820152600080516020611751833981519152604482015290519081900360640190fd5b6000805474ff000000000000000000000000000000000000000019811660a060020a9182900460ff1615909102179055565b600354600160a060020a031681565b60005460a060020a900460ff1681565b60046020526000908152604090205460ff1681565b60025481565b610e9a6111c5565b600160a060020a0316610eab610d17565b600160a060020a031614610ef7576040805160e560020a62461bcd0281526020600482018190526024820152600080516020611751833981519152604482015290519081900360640190fd5b600354600090610f1090600160a060020a0316306112d7565b6003549091506105bb90600160a060020a0316838361135c565b610f326111c5565b600160a060020a0316610f43610d17565b600160a060020a031614610f8f576040805160e560020a62461bcd0281526020600482018190526024820152600080516020611751833981519152604482015290519081900360640190fd5b600160a060020a038116610fd75760405160e560020a62461bcd0281526004018080602001828103825260268152602001806117086026913960400191505060405180910390fd5b60008054604051600160a060020a03808516939216917f8be0079c531659141344cd1fd0a4f28419497f9722a3daafe3b4186f6b6457e091a36000805473ffffffffffffffffffffffffffffffffffffffff1916600160a060020a0392909216919091179055565b3b63ffffffff16151590565b6002543410156110a5576040805160e560020a62461bcd02815260206004820152601760248201527f4e6f7420456e6f756768204665652050726f7669646564000000000000000000604482015290519081900360640190fd5b6040805182815233602082015281517f5eec9f202a9e6fc1643a0887b641c182ed3700fcf82e98629b8d32ffd1d13308929181900390910190a150565b600254156110a5576003546002546110a591600160a060020a03169033906114ab565b61110d610842565b611161576040805160e560020a62461bcd02815260206004820152601460248201527f5061757361626c653a206e6f7420706175736564000000000000000000000000604482015290519081900360640190fd5b6001805474ff0000000000000000000000000000000000000000191690557f5db9ee0a495bf2e6ff9c91a7834c1ba4fdd244a5e8aa4e537bd38aeae4b073aa6111a86111c5565b60408051600160a060020a039092168252519081900360200190a1565b3390565b600082820183811015611226576040805160e560020a62461bcd02815260206004820152601b60248201527f536166654d6174683a206164646974696f6e206f766572666c6f770000000000604482015290519081900360640190fd5b9392505050565b611235610842565b1561128a576040805160e560020a62461bcd02815260206004820152601060248201527f5061757361626c653a2070617573656400000000000000000000000000000000604482015290519081900360640190fd5b6001805474ff0000000000000000000000000000000000000000191660a060020a1790557f62e78cea01bee320cd4e420270b5ea74000d11b0c9f74754ebdbfc544b05a2586111a86111c5565b600082600160a060020a03166370a08231836040518263ffffffff1660e060020a0281526004018082600160a060020a0316815260200191505060206040518083038186803b15801561132957600080fd5b505afa15801561133d573d6000803e3d6000fd5b505050506040513d602081101561135357600080fd5b50519392505050565b600061136884306112d7565b60408051848152600160a060020a03808716602083015287168183015290519192507fe4d818e6f992efbd60db553f3edce819a199baec79a784b95c89bc8ee86f2584919081900360600190a183600160a060020a031663a9059cbb84846040518363ffffffff1660e060020a0281526004018083600160a060020a0316815260200182815260200192505050602060405180830381600087803b15801561140f57600080fd5b505af1158015611423573d6000803e3d6000fd5b505050506040513d602081101561143957600080fd5b5081905061145061144a86306112d7565b846111c9565b146114a5576040805160e560020a62461bcd02815260206004820152601d60248201527f7265636976652077726f6e6720616d6f756e74206f6620746f6b656e73000000604482015290519081900360640190fd5b50505050565b8282828083600160a060020a031663dd62ed3e84306040518363ffffffff1660e060020a0281526004018083600160a060020a0316815260200182600160a060020a031681526020019250505060206040518083038186803b15801561151057600080fd5b505afa158015611524573d6000803e3d6000fd5b505050506040513d602081101561153a57600080fd5b50511015611592576040805160e560020a62461bcd02815260206004820152600c60248201527f6e6f20616c6c6f77616e63650000000000000000000000000000000000000000604482015290519081900360640190fd5b6000841161159f57600080fd5b60006115ab87306112d7565b604080517f23b872dd000000000000000000000000000000000000000000000000000000008152600160a060020a038981166004830152306024830152604482018990529151929350908916916323b872dd916064808201926020929091908290030181600087803b15801561162057600080fd5b505af1158015611634573d6000803e3d6000fd5b505050506040513d602081101561164a57600080fd5b505060408051868152600160a060020a03808916602083015289168183015290517f1fecf4702e692891a7c2f0d328779b085efb5edd094fa5558bd5cd147a1679229181900360600190a161169f87306112d7565b6116a982876111c9565b146116fe576040805160e560020a62461bcd02815260206004820152601d60248201527f7265636976652077726f6e6720616d6f756e74206f6620746f6b656e73000000604482015290519081900360640190fd5b5050505050505056fe4f776e61626c653a206e6577206f776e657220697320746865207a65726f2061646472657373536f6d65207468696e672077726f6e67207769746820746865206d736753656e6465724f776e61626c653a2063616c6c6572206973206e6f7420746865206f776e6572417574686f72697a6174696f6e204572726f7200000000000000000000000000a2646970667358221220aa1052ae8efe30bb5e313e727f632fceec6e89e8302fe4cb3402ca4d8abec47964736f6c634300060c0033",
  "immutableReferences": {},
  "source": "// SPDX-License-Identifier: MIT\n\npragma solidity ^0.6.0;\n\nimport \"./PoolControl.sol\";\nimport \"openzeppelin-solidity/contracts/math/SafeMath.sol\";\n\ncontract SignUpPool is PoolControl {\n    event NewSignUp(uint256 PoolId, address UserAddress);\n\n    modifier shouldBeActive(uint256 _poolId) {\n        require(isPoolActive[_poolId], \"Pool is not Active or Created\");\n        _;\n    }\n\n    modifier validateSender(){\n        require(\n            msg.sender == tx.origin && !isContract(msg.sender),\n            \"Some thing wrong with the msgSender\"\n        );\n        _;\n    }\n\n    function SignUp(uint256 _poolId) external payable whenNotPaused shouldBeActive(_poolId) validateSender() {\n        if(FeeTokenAddress == address(0)){\n            SignUpETH(_poolId);\n        } else {\n            SignUpERC20(_poolId);\n        }\n    }\n\n    function SignUpETH(uint256 _poolId) internal {\n        require(msg.value >= Fee, \"Not Enough Fee Provided\");\n        emit NewSignUp(_poolId, msg.sender);\n    }\n\n    function SignUpERC20(uint _poolId) internal {\n        if(Fee > 0){\n            TransferInToken(FeeTokenAddress, msg.sender, Fee);\n        }\n        emit NewSignUp(_poolId, msg.sender);\n    }\n\n    //@dev use it with  require(msg.sender == tx.origin)\n    function isContract(address _addr) internal view returns (bool) {\n        uint32 size;\n        assembly {\n            size := extcodesize(_addr)\n        }\n        return (size > 0);\n    }\n}",
  "sourcePath": "/home/ashwin/Poolz/SignUp-Pool/contracts/SignUpPool.sol",
  "compiler": {
    "name": "solc",
    "version": "0.6.12+commit.27d51765.Emscripten.clang"
  },
  "schemaVersion": "3.4.1",
  "updatedAt": "2021-07-06T18:36:19.116Z",
  "devdoc": {
    "kind": "dev",
    "methods": {
      "owner()": {
        "details": "Returns the address of the current owner."
      },
      "paused()": {
        "details": "Returns true if the contract is paused, and false otherwise."
      },
      "renounceOwnership()": {
        "details": "Leaves the contract without owner. It will not be possible to call `onlyOwner` functions anymore. Can only be called by the current owner. NOTE: Renouncing ownership will leave the contract without an owner, thereby removing any functionality that is only available to the owner."
      },
      "transferOwnership(address)": {
        "details": "Transfers ownership of the contract to a new account (`newOwner`). Can only be called by the current owner."
      }
    },
    "version": 1
  },
  "userdoc": {
    "kind": "user",
    "methods": {},
    "version": 1
  }
}