{
  "contractName": "ThePoolz",
  "abi": [
    {
      "inputs": [],
      "stateMutability": "nonpayable",
      "type": "constructor"
    },
    {
      "anonymous": false,
      "inputs": [
        {
          "indexed": false,
          "internalType": "uint256",
          "name": "id",
          "type": "uint256"
        }
      ],
      "name": "FinishPool",
      "type": "event"
    },
    {
      "anonymous": false,
      "inputs": [
        {
          "indexed": false,
          "internalType": "uint256",
          "name": "Investor_ID",
          "type": "uint256"
        },
        {
          "indexed": false,
          "internalType": "address",
          "name": "Investor_Address",
          "type": "address"
        },
        {
          "indexed": false,
          "internalType": "uint256",
          "name": "LockedDeal_ID",
          "type": "uint256"
        }
      ],
      "name": "NewInvestorEvent",
      "type": "event"
    },
    {
      "anonymous": false,
      "inputs": [
        {
          "indexed": false,
          "internalType": "address",
          "name": "token",
          "type": "address"
        },
        {
          "indexed": false,
          "internalType": "uint256",
          "name": "id",
          "type": "uint256"
        }
      ],
      "name": "NewPool",
      "type": "event"
    },
    {
      "anonymous": false,
      "inputs": [
        {
          "indexed": true,
          "internalType": "address",
          "name": "previousOwner",
          "type": "address"
        },
        {
          "indexed": true,
          "internalType": "address",
          "name": "newOwner",
          "type": "address"
        }
      ],
      "name": "OwnershipTransferred",
      "type": "event"
    },
    {
      "anonymous": false,
      "inputs": [
        {
          "indexed": false,
          "internalType": "address",
          "name": "account",
          "type": "address"
        }
      ],
      "name": "Paused",
      "type": "event"
    },
    {
      "anonymous": false,
      "inputs": [
        {
          "indexed": false,
          "internalType": "uint256",
          "name": "id",
          "type": "uint256"
        }
      ],
      "name": "PoolUpdate",
      "type": "event"
    },
    {
      "anonymous": false,
      "inputs": [
        {
          "indexed": false,
          "internalType": "uint256",
          "name": "Amount",
          "type": "uint256"
        },
        {
          "indexed": false,
          "internalType": "address",
          "name": "From",
          "type": "address"
        },
        {
          "indexed": false,
          "internalType": "address",
          "name": "Token",
          "type": "address"
        }
      ],
      "name": "TransferIn",
      "type": "event"
    },
    {
      "anonymous": false,
      "inputs": [
        {
          "indexed": false,
          "internalType": "uint256",
          "name": "Amount",
          "type": "uint256"
        },
        {
          "indexed": false,
          "internalType": "address",
          "name": "From",
          "type": "address"
        }
      ],
      "name": "TransferInETH",
      "type": "event"
    },
    {
      "anonymous": false,
      "inputs": [
        {
          "indexed": false,
          "internalType": "uint256",
          "name": "Amount",
          "type": "uint256"
        },
        {
          "indexed": false,
          "internalType": "address",
          "name": "To",
          "type": "address"
        },
        {
          "indexed": false,
          "internalType": "address",
          "name": "Token",
          "type": "address"
        }
      ],
      "name": "TransferOut",
      "type": "event"
    },
    {
      "anonymous": false,
      "inputs": [
        {
          "indexed": false,
          "internalType": "uint256",
          "name": "Amount",
          "type": "uint256"
        },
        {
          "indexed": false,
          "internalType": "address",
          "name": "To",
          "type": "address"
        }
      ],
      "name": "TransferOutETH",
      "type": "event"
    },
    {
      "anonymous": false,
      "inputs": [
        {
          "indexed": false,
          "internalType": "address",
          "name": "account",
          "type": "address"
        }
      ],
      "name": "Unpaused",
      "type": "event"
    },
    {
      "inputs": [],
      "name": "Benefit_Address",
      "outputs": [
        {
          "internalType": "address",
          "name": "",
          "type": "address"
        }
      ],
      "stateMutability": "view",
      "type": "function"
    },
    {
      "inputs": [
        {
          "internalType": "address",
          "name": "_Token",
          "type": "address"
        },
        {
          "internalType": "uint256",
          "name": "_FinishTime",
          "type": "uint256"
        },
        {
          "internalType": "uint256",
          "name": "_Rate",
          "type": "uint256"
        },
        {
          "internalType": "uint256",
          "name": "_POZRate",
          "type": "uint256"
        },
        {
          "internalType": "uint256",
          "name": "_StartAmount",
          "type": "uint256"
        },
        {
          "internalType": "uint64",
          "name": "_LockedUntil",
          "type": "uint64"
        },
        {
          "internalType": "address",
          "name": "_MainCoin",
          "type": "address"
        },
        {
          "internalType": "bool",
          "name": "_Is21Decimal",
          "type": "bool"
        },
        {
          "internalType": "uint256",
          "name": "_Now",
          "type": "uint256"
        },
        {
          "internalType": "uint256",
          "name": "_WhiteListId",
          "type": "uint256"
        }
      ],
      "name": "CreatePool",
      "outputs": [],
      "stateMutability": "payable",
      "type": "function"
    },
    {
      "inputs": [],
      "name": "Fee",
      "outputs": [
        {
          "internalType": "uint256",
          "name": "",
          "type": "uint256"
        }
      ],
      "stateMutability": "view",
      "type": "function"
    },
    {
      "inputs": [
        {
          "internalType": "uint256",
          "name": "_id",
          "type": "uint256"
        }
      ],
      "name": "GetInvestmentData",
      "outputs": [
        {
          "internalType": "uint256",
          "name": "",
          "type": "uint256"
        },
        {
          "internalType": "address",
          "name": "",
          "type": "address"
        },
        {
          "internalType": "uint256",
          "name": "",
          "type": "uint256"
        },
        {
          "internalType": "uint256",
          "name": "",
          "type": "uint256"
        }
      ],
      "stateMutability": "view",
      "type": "function"
    },
    {
      "inputs": [],
      "name": "GetMyInvestmentIds",
      "outputs": [
        {
          "internalType": "uint256[]",
          "name": "",
          "type": "uint256[]"
        }
      ],
      "stateMutability": "view",
      "type": "function"
    },
    {
      "inputs": [],
      "name": "GetMyPoolsId",
      "outputs": [
        {
          "internalType": "uint256[]",
          "name": "",
          "type": "uint256[]"
        }
      ],
      "stateMutability": "view",
      "type": "function"
    },
    {
      "inputs": [
        {
          "internalType": "uint256",
          "name": "_Id",
          "type": "uint256"
        }
      ],
      "name": "GetPoolBaseData",
      "outputs": [
        {
          "internalType": "address",
          "name": "",
          "type": "address"
        },
        {
          "internalType": "address",
          "name": "",
          "type": "address"
        },
        {
          "internalType": "uint256",
          "name": "",
          "type": "uint256"
        },
        {
          "internalType": "uint256",
          "name": "",
          "type": "uint256"
        },
        {
          "internalType": "uint256",
          "name": "",
          "type": "uint256"
        },
        {
          "internalType": "uint256",
          "name": "",
          "type": "uint256"
        }
      ],
      "stateMutability": "view",
      "type": "function"
    },
    {
      "inputs": [
        {
          "internalType": "uint256",
          "name": "_Id",
          "type": "uint256"
        }
      ],
      "name": "GetPoolExtraData",
      "outputs": [
        {
          "internalType": "bool",
          "name": "",
          "type": "bool"
        },
        {
          "internalType": "uint256",
          "name": "",
          "type": "uint256"
        },
        {
          "internalType": "address",
          "name": "",
          "type": "address"
        }
      ],
      "stateMutability": "view",
      "type": "function"
    },
    {
      "inputs": [
        {
          "internalType": "uint256",
          "name": "_Id",
          "type": "uint256"
        }
      ],
      "name": "GetPoolMoreData",
      "outputs": [
        {
          "internalType": "uint64",
          "name": "",
          "type": "uint64"
        },
        {
          "internalType": "uint256",
          "name": "",
          "type": "uint256"
        },
        {
          "internalType": "uint256",
          "name": "",
          "type": "uint256"
        },
        {
          "internalType": "uint256",
          "name": "",
          "type": "uint256"
        },
        {
          "internalType": "uint256",
          "name": "",
          "type": "uint256"
        },
        {
          "internalType": "bool",
          "name": "",
          "type": "bool"
        }
      ],
      "stateMutability": "view",
      "type": "function"
    },
    {
      "inputs": [
        {
          "internalType": "uint256",
          "name": "_id",
          "type": "uint256"
        }
      ],
      "name": "GetPoolStatus",
      "outputs": [
        {
          "internalType": "enum PoolsData.PoolStatus",
          "name": "",
          "type": "uint8"
        }
      ],
      "stateMutability": "view",
      "type": "function"
    },
    {
      "inputs": [],
      "name": "GovernerContract",
      "outputs": [
        {
          "internalType": "address",
          "name": "",
          "type": "address"
        }
      ],
      "stateMutability": "view",
      "type": "function"
    },
    {
      "inputs": [
        {
          "internalType": "uint256",
          "name": "_PoolId",
          "type": "uint256"
        },
        {
          "internalType": "uint256",
          "name": "_Amount",
          "type": "uint256"
        }
      ],
      "name": "InvestERC20",
      "outputs": [],
      "stateMutability": "nonpayable",
      "type": "function"
    },
    {
      "inputs": [
        {
          "internalType": "uint256",
          "name": "_PoolId",
          "type": "uint256"
        }
      ],
      "name": "InvestETH",
      "outputs": [],
      "stateMutability": "payable",
      "type": "function"
    },
    {
      "inputs": [
        {
          "internalType": "address",
          "name": "_address",
          "type": "address"
        }
      ],
      "name": "IsERC20Maincoin",
      "outputs": [
        {
          "internalType": "bool",
          "name": "",
          "type": "bool"
        }
      ],
      "stateMutability": "view",
      "type": "function"
    },
    {
      "inputs": [],
      "name": "IsPayble",
      "outputs": [
        {
          "internalType": "bool",
          "name": "",
          "type": "bool"
        }
      ],
      "stateMutability": "view",
      "type": "function"
    },
    {
      "inputs": [
        {
          "internalType": "uint256",
          "name": "_PoolId",
          "type": "uint256"
        }
      ],
      "name": "IsReadyWithdrawLeftOvers",
      "outputs": [
        {
          "internalType": "bool",
          "name": "",
          "type": "bool"
        }
      ],
      "stateMutability": "view",
      "type": "function"
    },
    {
      "inputs": [],
      "name": "IsTokenFilterOn",
      "outputs": [
        {
          "internalType": "bool",
          "name": "",
          "type": "bool"
        }
      ],
      "stateMutability": "view",
      "type": "function"
    },
    {
      "inputs": [
        {
          "internalType": "address",
          "name": "_address",
          "type": "address"
        }
      ],
      "name": "IsValidToken",
      "outputs": [
        {
          "internalType": "bool",
          "name": "",
          "type": "bool"
        }
      ],
      "stateMutability": "view",
      "type": "function"
    },
    {
      "inputs": [],
      "name": "LockedDealAddress",
      "outputs": [
        {
          "internalType": "address",
          "name": "",
          "type": "address"
        }
      ],
      "stateMutability": "view",
      "type": "function"
    },
    {
      "inputs": [],
      "name": "MCWhitelistId",
      "outputs": [
        {
          "internalType": "uint256",
          "name": "",
          "type": "uint256"
        }
      ],
      "stateMutability": "view",
      "type": "function"
    },
    {
      "inputs": [],
      "name": "MaxDuration",
      "outputs": [
        {
          "internalType": "uint256",
          "name": "",
          "type": "uint256"
        }
      ],
      "stateMutability": "view",
      "type": "function"
    },
    {
      "inputs": [],
      "name": "MaxERC20Invest",
      "outputs": [
        {
          "internalType": "uint256",
          "name": "",
          "type": "uint256"
        }
      ],
      "stateMutability": "view",
      "type": "function"
    },
    {
      "inputs": [],
      "name": "MaxETHInvest",
      "outputs": [
        {
          "internalType": "uint256",
          "name": "",
          "type": "uint256"
        }
      ],
      "stateMutability": "view",
      "type": "function"
    },
    {
      "inputs": [],
      "name": "MinDuration",
      "outputs": [
        {
          "internalType": "uint256",
          "name": "",
          "type": "uint256"
        }
      ],
      "stateMutability": "view",
      "type": "function"
    },
    {
      "inputs": [],
      "name": "MinERC20Invest",
      "outputs": [
        {
          "internalType": "uint256",
          "name": "",
          "type": "uint256"
        }
      ],
      "stateMutability": "view",
      "type": "function"
    },
    {
      "inputs": [],
      "name": "MinETHInvest",
      "outputs": [
        {
          "internalType": "uint256",
          "name": "",
          "type": "uint256"
        }
      ],
      "stateMutability": "view",
      "type": "function"
    },
    {
      "inputs": [],
      "name": "PoolPrice",
      "outputs": [
        {
          "internalType": "uint256",
          "name": "",
          "type": "uint256"
        }
      ],
      "stateMutability": "view",
      "type": "function"
    },
    {
      "inputs": [],
      "name": "PozFee",
      "outputs": [
        {
          "internalType": "uint256",
          "name": "",
          "type": "uint256"
        }
      ],
      "stateMutability": "view",
      "type": "function"
    },
    {
      "inputs": [],
      "name": "PozTimer",
      "outputs": [
        {
          "internalType": "uint256",
          "name": "",
          "type": "uint256"
        }
      ],
      "stateMutability": "view",
      "type": "function"
    },
    {
      "inputs": [
        {
          "internalType": "address",
          "name": "_benefitAddress",
          "type": "address"
        }
      ],
      "name": "SetBenefit_Address",
      "outputs": [],
      "stateMutability": "nonpayable",
      "type": "function"
    },
    {
      "inputs": [
        {
          "internalType": "uint256",
          "name": "_fee",
          "type": "uint256"
        }
      ],
      "name": "SetFee",
      "outputs": [],
      "stateMutability": "nonpayable",
      "type": "function"
    },
    {
      "inputs": [
        {
          "internalType": "address",
          "name": "lockedDeal",
          "type": "address"
        }
      ],
      "name": "SetLockedDealAddress",
      "outputs": [],
      "stateMutability": "nonpayable",
      "type": "function"
    },
    {
      "inputs": [
        {
          "internalType": "uint256",
          "name": "_minDuration",
          "type": "uint256"
        },
        {
          "internalType": "uint256",
          "name": "_maxDuration",
          "type": "uint256"
        }
      ],
      "name": "SetMinMaxDuration",
      "outputs": [],
      "stateMutability": "nonpayable",
      "type": "function"
    },
    {
      "inputs": [
        {
          "internalType": "uint256",
          "name": "_MinERC20Invest",
          "type": "uint256"
        },
        {
          "internalType": "uint256",
          "name": "_MaxERC20Invest",
          "type": "uint256"
        }
      ],
      "name": "SetMinMaxERC20Invest",
      "outputs": [],
      "stateMutability": "nonpayable",
      "type": "function"
    },
    {
      "inputs": [
        {
          "internalType": "uint256",
          "name": "_MinETHInvest",
          "type": "uint256"
        },
        {
          "internalType": "uint256",
          "name": "_MaxETHInvest",
          "type": "uint256"
        }
      ],
      "name": "SetMinMaxETHInvest",
      "outputs": [],
      "stateMutability": "nonpayable",
      "type": "function"
    },
    {
      "inputs": [
        {
          "internalType": "uint256",
          "name": "_fee",
          "type": "uint256"
        }
      ],
      "name": "SetPOZFee",
      "outputs": [],
      "stateMutability": "nonpayable",
      "type": "function"
    },
    {
      "inputs": [
        {
          "internalType": "uint256",
          "name": "_PoolPrice",
          "type": "uint256"
        }
      ],
      "name": "SetPoolPrice",
      "outputs": [],
      "stateMutability": "nonpayable",
      "type": "function"
    },
    {
      "inputs": [
        {
          "internalType": "uint256",
          "name": "_pozTimer",
          "type": "uint256"
        }
      ],
      "name": "SetPozTimer",
      "outputs": [],
      "stateMutability": "nonpayable",
      "type": "function"
    },
    {
      "inputs": [
        {
          "internalType": "address",
          "name": "_WhiteList_Address",
          "type": "address"
        }
      ],
      "name": "SetWhiteList_Address",
      "outputs": [],
      "stateMutability": "nonpayable",
      "type": "function"
    },
    {
      "inputs": [],
      "name": "SwapTokenFilter",
      "outputs": [],
      "stateMutability": "nonpayable",
      "type": "function"
    },
    {
      "inputs": [],
      "name": "SwitchIsPayble",
      "outputs": [],
      "stateMutability": "nonpayable",
      "type": "function"
    },
    {
      "inputs": [],
      "name": "SwitchLockedDealForTlp",
      "outputs": [],
      "stateMutability": "nonpayable",
      "type": "function"
    },
    {
      "inputs": [],
      "name": "TokenWhitelistId",
      "outputs": [
        {
          "internalType": "uint256",
          "name": "",
          "type": "uint256"
        }
      ],
      "stateMutability": "view",
      "type": "function"
    },
    {
      "inputs": [],
      "name": "UseLockedDealForTlp",
      "outputs": [
        {
          "internalType": "bool",
          "name": "",
          "type": "bool"
        }
      ],
      "stateMutability": "view",
      "type": "function"
    },
    {
      "inputs": [],
      "name": "WhiteList_Address",
      "outputs": [
        {
          "internalType": "address",
          "name": "",
          "type": "address"
        }
      ],
      "stateMutability": "view",
      "type": "function"
    },
    {
      "inputs": [
        {
          "internalType": "address",
          "name": "_Token",
          "type": "address"
        },
        {
          "internalType": "address",
          "name": "_to",
          "type": "address"
        }
      ],
      "name": "WithdrawERC20Fee",
      "outputs": [],
      "stateMutability": "nonpayable",
      "type": "function"
    },
    {
      "inputs": [
        {
          "internalType": "address payable",
          "name": "_to",
          "type": "address"
        }
      ],
      "name": "WithdrawETHFee",
      "outputs": [],
      "stateMutability": "nonpayable",
      "type": "function"
    },
    {
      "inputs": [
        {
          "internalType": "uint256",
          "name": "_PoolId",
          "type": "uint256"
        }
      ],
      "name": "WithdrawLeftOvers",
      "outputs": [
        {
          "internalType": "bool",
          "name": "",
          "type": "bool"
        }
      ],
      "stateMutability": "nonpayable",
      "type": "function"
    },
    {
      "inputs": [],
      "name": "getTotalInvestor",
      "outputs": [
        {
          "internalType": "uint256",
          "name": "",
          "type": "uint256"
        }
      ],
      "stateMutability": "view",
      "type": "function"
    },
    {
      "inputs": [
        {
          "internalType": "uint256",
          "name": "_id",
          "type": "uint256"
        }
      ],
      "name": "isPoolLocked",
      "outputs": [
        {
          "internalType": "bool",
          "name": "",
          "type": "bool"
        }
      ],
      "stateMutability": "view",
      "type": "function"
    },
    {
      "inputs": [],
      "name": "isUsingLockedDeal",
      "outputs": [
        {
          "internalType": "bool",
          "name": "",
          "type": "bool"
        }
      ],
      "stateMutability": "view",
      "type": "function"
    },
    {
      "inputs": [],
      "name": "owner",
      "outputs": [
        {
          "internalType": "address",
          "name": "",
          "type": "address"
        }
      ],
      "stateMutability": "view",
      "type": "function"
    },
    {
      "inputs": [],
      "name": "pause",
      "outputs": [],
      "stateMutability": "nonpayable",
      "type": "function"
    },
    {
      "inputs": [],
      "name": "paused",
      "outputs": [
        {
          "internalType": "bool",
          "name": "",
          "type": "bool"
        }
      ],
      "stateMutability": "view",
      "type": "function"
    },
    {
      "inputs": [],
      "name": "poolsCount",
      "outputs": [
        {
          "internalType": "uint256",
          "name": "",
          "type": "uint256"
        }
      ],
      "stateMutability": "view",
      "type": "function"
    },
    {
      "inputs": [],
      "name": "renounceOwnership",
      "outputs": [],
      "stateMutability": "nonpayable",
      "type": "function"
    },
    {
      "inputs": [
        {
          "internalType": "address",
          "name": "_address",
          "type": "address"
        }
      ],
      "name": "setGovernerContract",
      "outputs": [],
      "stateMutability": "nonpayable",
      "type": "function"
    },
    {
      "inputs": [
        {
          "internalType": "uint256",
          "name": "_whiteListId",
          "type": "uint256"
        }
      ],
      "name": "setMCWhitelistId",
      "outputs": [],
      "stateMutability": "nonpayable",
      "type": "function"
    },
    {
      "inputs": [
        {
          "internalType": "uint256",
          "name": "_whiteListId",
          "type": "uint256"
        }
      ],
      "name": "setTokenWhitelistId",
      "outputs": [],
      "stateMutability": "nonpayable",
      "type": "function"
    },
    {
      "inputs": [
        {
          "internalType": "address",
          "name": "newOwner",
          "type": "address"
        }
      ],
      "name": "transferOwnership",
      "outputs": [],
      "stateMutability": "nonpayable",
      "type": "function"
    },
    {
      "inputs": [],
      "name": "unpause",
      "outputs": [],
      "stateMutability": "nonpayable",
      "type": "function"
    },
    {
      "stateMutability": "payable",
      "type": "receive"
    }
  ],
  "bytecode": "0x60806040523480156200001157600080fd5b50600062000027640100000000620000cb810204565b60008054600160a060020a031916600160a060020a0383169081178255604051929350917f8be0079c531659141344cd1fd0a4f28419497f9722a3daafe3b4186f6b6457e0908290a3506000805460a060020a60ff021916905560018054600160a060020a0319169055600f6002556103e86003556004805460ff19169055601460065562ed4e00600855612710600a5568056bc75e2d63100000600b55620000cf565b3390565b61402680620000df6000396000f3fe60806040526004361061039e5760003560e060020a90048063991e979a116101e0578063ca4772bb11610106578063e8906716116100a4578063f318824811610073578063f318824814610cb3578063f32a68cb14610cdd578063fc1a86ff14610cf2578063fd711a5514610d2d576103bb565b8063e890671614610c06578063ee63e8bd14610c39578063f04be48b14610c63578063f2fde38b14610c80576103bb565b8063d0f52910116100e0578063d0f5291014610b07578063e34c777214610b5a578063e4ec0f6814610b84578063e569a6c014610bf1576103bb565b8063ca4772bb14610ab3578063cab1704614610ac8578063ccb801bf14610add576103bb565b8063b5f98b8e1161017e578063be33a3ec1161014d578063be33a3ec14610a44578063bed0604114610a74578063bef7a2f014610a89578063c34434e514610a9e576103bb565b8063b5f98b8e146109a2578063b7d9b6f1146109b7578063b973d7bc146109e7578063b977eddf14610a1a576103bb565b8063aa825486116101ba578063aa82548614610930578063aac5da5c14610945578063aaf1fe8f1461095a578063abb7add21461098d576103bb565b8063991e979a146108a9578063a73ff128146108dc578063a87d2be414610906576103bb565b806360f9e80a116102c557806375c64dd1116102635780638da5cb5b116102325780638da5cb5b1461085557806391314dde1461086a5780639363fc541461087f5780639642ec0c14610894576103bb565b806375c64dd1146107c857806376ab7b44146107dd5780638b1a2dd8146108105780638c788de014610840576103bb565b8063668189671161029f57806366818967146107415780636b1fe0b6146107745780636b58f2f614610789578063715018a6146107b3576103bb565b806360f9e80a1461061657806360fdd7c41461067357806363552a49146106dc576103bb565b806327ca36ec1161033d5780635796bc431161030c5780635796bc43146105c25780635c3f8312146105d75780635c975abb146105ec5780635cdddc7c14610601576103bb565b806327ca36ec146104fe5780633e90eea714610513578063410040251461054357806353eb3167146105ad576103bb565b80630cd8e965116103795780630cd8e965146104265780630d08caa014610457578063114fa9bd146104a257806318c9be4a146104e9576103bb565b8062172ddf146103c0578063043d520b146103ea57806307b027ed14610411576103bb565b366103bb5760005460a060020a900460ff166103b957600080fd5b005b600080fd5b3480156103cc57600080fd5b506103b9600480360360208110156103e357600080fd5b5035610d57565b3480156103f657600080fd5b506103ff610e96565b60408051918252519081900360200190f35b34801561041d57600080fd5b506103b9610e9c565b34801561043257600080fd5b5061043b610f33565b60408051600160a060020a039092168252519081900360200190f35b34801561046357600080fd5b506104816004803603602081101561047a57600080fd5b5035610f42565b6040518082600581111561049157fe5b815260200191505060405180910390f35b3480156104ae57600080fd5b506104d5600480360360208110156104c557600080fd5b5035600160a060020a0316611191565b604080519115158252519081900360200190f35b3480156104f557600080fd5b506103ff611253565b34801561050a57600080fd5b506103ff611259565b34801561051f57600080fd5b506103b96004803603604081101561053657600080fd5b508035906020013561125f565b34801561054f57600080fd5b5061056d6004803603602081101561056657600080fd5b50356112dd565b6040805167ffffffffffffffff909716875260208701959095528585019390935260608501919091526080840152151560a0830152519081900360c00190f35b3480156105b957600080fd5b506103ff611381565b3480156105ce57600080fd5b5061043b611387565b3480156105e357600080fd5b506104d5611396565b3480156105f857600080fd5b506104d56113c1565b34801561060d57600080fd5b506104d56113ca565b34801561062257600080fd5b506106406004803603602081101561063957600080fd5b50356113da565b60408051958652600160a060020a0390941660208601528484019290925260608401526080830152519081900360a00190f35b34801561067f57600080fd5b5061069d6004803603602081101561069657600080fd5b5035611413565b60408051600160a060020a039788168152959096166020860152848601939093526060840191909152608083015260a082015290519081900360c00190f35b3480156106e857600080fd5b506106f16114ad565b60408051602080825283518183015283519192839290830191858101910280838360005b8381101561072d578181015183820152602001610715565b505050509050019250505060405180910390f35b34801561074d57600080fd5b506103b96004803603602081101561076457600080fd5b5035600160a060020a031661150e565b34801561078057600080fd5b506103ff6115a3565b34801561079557600080fd5b506104d5600480360360208110156107ac57600080fd5b50356115a9565b3480156107bf57600080fd5b506103b96115cc565b3480156107d457600080fd5b506103ff61167b565b3480156107e957600080fd5b506103b96004803603602081101561080057600080fd5b5035600160a060020a0316611681565b34801561081c57600080fd5b506103b96004803603604081101561083357600080fd5b5080359060200135611716565b34801561084c57600080fd5b506103ff611794565b34801561086157600080fd5b5061043b61179a565b34801561087657600080fd5b506106f16117a9565b34801561088b57600080fd5b506104d5611808565b3480156108a057600080fd5b5061043b611818565b3480156108b557600080fd5b506103b9600480360360208110156108cc57600080fd5b5035600160a060020a0316611827565b3480156108e857600080fd5b506104d5600480360360208110156108ff57600080fd5b50356118c2565b34801561091257600080fd5b506103b96004803603602081101561092957600080fd5b5035611962565b34801561093c57600080fd5b506103ff6119f6565b34801561095157600080fd5b506103b96119fc565b34801561096657600080fd5b506103b96004803603602081101561097d57600080fd5b5035600160a060020a0316611a93565b34801561099957600080fd5b506103ff611b28565b3480156109ae57600080fd5b506104d5611b2e565b3480156109c357600080fd5b506103b9600480360360408110156109da57600080fd5b5080359060200135611b3e565b3480156109f357600080fd5b506103b960048036036020811015610a0a57600080fd5b5035600160a060020a0316611bbc565b348015610a2657600080fd5b506103b960048036036020811015610a3d57600080fd5b5035611c51565b348015610a5057600080fd5b506103b960048036036040811015610a6757600080fd5b5080359060200135611cc9565b348015610a8057600080fd5b506103ff611fab565b348015610a9557600080fd5b506103ff611fb1565b348015610aaa57600080fd5b506103ff611fb7565b348015610abf57600080fd5b5061043b611fbd565b348015610ad457600080fd5b506103ff611fcc565b348015610ae957600080fd5b506103b960048036036020811015610b0057600080fd5b5035611fd2565b348015610b1357600080fd5b50610b3160048036036020811015610b2a57600080fd5b503561204a565b6040805193151584526020840192909252600160a060020a031682820152519081900360600190f35b348015610b6657600080fd5b506104d560048036036020811015610b7d57600080fd5b50356120cd565b6103b96004803603610140811015610b9b57600080fd5b50600160a060020a03813581169160208101359160408201359160608101359160808201359167ffffffffffffffff60a0820135169160c0820135169060e081013515159061010081013590610120013561212a565b348015610bfd57600080fd5b506103ff61279e565b348015610c1257600080fd5b506104d560048036036020811015610c2957600080fd5b5035600160a060020a03166127a4565b348015610c4557600080fd5b506103b960048036036020811015610c5c57600080fd5b5035612830565b6103b960048036036020811015610c7957600080fd5b50356128a8565b348015610c8c57600080fd5b506103b960048036036020811015610ca357600080fd5b5035600160a060020a0316612b9d565b348015610cbf57600080fd5b506103b960048036036020811015610cd657600080fd5b5035612ca5565b348015610ce957600080fd5b506103b9612d2d565b348015610cfe57600080fd5b506103b960048036036040811015610d1557600080fd5b50600160a060020a0381358116916020013516612dd2565b348015610d3957600080fd5b506104d560048036036020811015610d5057600080fd5b5035612e64565b610d5f61179a565b600160a060020a031633600160a060020a03161480610d885750600154600160a060020a031633145b610dca576040805160e560020a62461bcd0281526020600482015260136024820152600080516020613fb1833981519152604482015290519081900360640190fd5b80612710811015610e42578160025480821115610deb576006849055610e3b565b6040805160e560020a62461bcd02815260206004820152600a60248201527f4e6f742062696767657200000000000000000000000000000000000000000000604482015290519081900360640190fd5b5050610e92565b6040805160e560020a62461bcd02815260206004820152600c60248201527f4e6f7420696e2072616e67650000000000000000000000000000000000000000604482015290519081900360640190fd5b5050565b60115481565b610ea4612f11565b600160a060020a0316610eb561179a565b600160a060020a031614610f01576040805160e560020a62461bcd0281526020600482018190526024820152600080516020613f91833981519152604482015290519081900360640190fd5b600f805474ff000000000000000000000000000000000000000019811660a060020a9182900460ff1615909102179055565b600154600160a060020a031681565b6000816013548110610f8c576040805160e560020a62461bcd02815260206004820152600f6024820152600080516020613fd1833981519152604482015290519081900360640190fd5b600083815260146020526040902060090154421015610fae576002915061118b565b6000838152601460205260409020600a015442108015610fde575060008381526014602052604090206008015415155b15610fec576000915061118b565b6000838152601460205260409020600a0154421080159061101d575060008381526014602052604090206008015415155b8015611039575060008381526014602052604090206002015442105b15611047576001915061118b565b60008381526014602052604090206008015415801561106a575061106a836115a9565b8015611086575060008381526014602052604090206002015442105b15611094576003915061118b565b6000838152601460205260409020600801541580156110b957506110b7836115a9565b155b156110c7576005915061118b565b60008381526014602052604090206002015442108015906110ee57506110ec836115a9565b155b1561111f576000838152601460205260409020600d015460ff1615611116576005915061118b565b6004915061118b565b6000838152601460205260409020600d015460ff168061114e5750600083815260146020526040902060080154155b80156111785750600083815260146020526040902060068101546008820154600b90920154909101145b15611186576005915061118b565b600491505b50919050565b600f5460009060a060020a900460ff16158061124b5750600e54601054604080517fcc44919b000000000000000000000000000000000000000000000000000000008152600160a060020a03868116600483015260248201939093529051600093929092169163cc44919b91604480820192602092909190829003018186803b15801561121d57600080fd5b505afa158015611231573d6000803e3d6000fd5b505050506040513d602081101561124757600080fd5b5051115b90505b919050565b60105481565b60075481565b61126761179a565b600160a060020a031633600160a060020a031614806112905750600154600160a060020a031633145b6112d2576040805160e560020a62461bcd0281526020600482015260136024820152600080516020613fb1833981519152604482015290519081900360640190fd5b600a91909155600b55565b60008060008060008086601354811061132e576040805160e560020a62461bcd02815260206004820152600f6024820152600080516020613fd1833981519152604482015290519081900360640190fd5b505050600094855250506014602052505060409020600781015460088201546009830154600a840154600b850154600d9095015467ffffffffffffffff9094169592949193909261010090910460ff1690565b60025481565b600f54600160a060020a031681565b60125460009060a060020a900460ff1680156113bc5750601254600160a060020a031615155b905090565b60045460ff1690565b600f5460a060020a900460ff1681565b600090815260176020526040902080546001820154600283015460038401546004909401549294600160a060020a039092169390929091565b600080600080600080866013548110611464576040805160e560020a62461bcd02815260206004820152600f6024820152600080516020613fd1833981519152604482015290519081900360640190fd5b50505060009485525050601460205250506040902080546001820154600283015460038401546004850154600690950154600160a060020a039485169694909316949193909290565b3360009081526015602090815260409182902080548351818402810184019094528084526060939283018282801561150457602002820191906000526020600020905b8154815260200190600101908083116114f0575b5050505050905090565b61151661179a565b600160a060020a031633600160a060020a0316148061153f5750600154600160a060020a031633145b611581576040805160e560020a62461bcd0281526020600482015260136024820152600080516020613fb1833981519152604482015290519081900360640190fd5b60018054600160a060020a031916600160a060020a0392909216919091179055565b60165490565b6000908152601460205260409020600701544267ffffffffffffffff9091161190565b6115d4612f11565b600160a060020a03166115e561179a565b600160a060020a031614611631576040805160e560020a62461bcd0281526020600482018190526024820152600080516020613f91833981519152604482015290519081900360640190fd5b60008054604051600160a060020a03909116907f8be0079c531659141344cd1fd0a4f28419497f9722a3daafe3b4186f6b6457e0908390a360008054600160a060020a0319169055565b60085481565b61168961179a565b600160a060020a031633600160a060020a031614806116b25750600154600160a060020a031633145b6116f4576040805160e560020a62461bcd0281526020600482015260136024820152600080516020613fb1833981519152604482015290519081900360640190fd5b600f8054600160a060020a031916600160a060020a0392909216919091179055565b61171e61179a565b600160a060020a031633600160a060020a031614806117475750600154600160a060020a031633145b611789576040805160e560020a62461bcd0281526020600482015260136024820152600080516020613fb1833981519152604482015290519081900360640190fd5b600c91909155600d55565b60135481565b600054600160a060020a031690565b3360009081526018602090815260409182902080548351818402810184019094528084526060939283018282801561150457602002820191906000526020600020908154815260200190600101908083116114f0575050505050905090565b60125460a060020a900460ff1681565b600e54600160a060020a031681565b61182f612f11565b600160a060020a031661184061179a565b600160a060020a03161461188c576040805160e560020a62461bcd0281526020600482018190526024820152600080516020613f91833981519152604482015290519081900360640190fd5b604051600160a060020a03821690303180156108fc02916000818181858888f19350505050158015610e92573d6000803e3d6000fd5b600081601354811061190c576040805160e560020a62461bcd02815260206004820152600f6024820152600080516020613fd1833981519152604482015290519081900360640190fd5b600083815260146020526040902060020154421080159061193d575060008381526014602052604090206008015415155b801561195b57506000838152601460205260409020600d015460ff16155b9392505050565b61196a61179a565b600160a060020a031633600160a060020a031614806119935750600154600160a060020a031633145b6119d5576040805160e560020a62461bcd0281526020600482015260136024820152600080516020613fb1833981519152604482015290519081900360640190fd5b80612710811015610e42576006548280821115610deb576002849055610e3b565b600b5481565b611a04612f11565b600160a060020a0316611a1561179a565b600160a060020a031614611a61576040805160e560020a62461bcd0281526020600482018190526024820152600080516020613f91833981519152604482015290519081900360640190fd5b6000805474ff000000000000000000000000000000000000000019811660a060020a9182900460ff1615909102179055565b611a9b61179a565b600160a060020a031633600160a060020a03161480611ac45750600154600160a060020a031633145b611b06576040805160e560020a62461bcd0281526020600482015260136024820152600080516020613fb1833981519152604482015290519081900360640190fd5b60128054600160a060020a031916600160a060020a0392909216919091179055565b60035481565b60005460a060020a900460ff1681565b611b4661179a565b600160a060020a031633600160a060020a03161480611b6f5750600154600160a060020a031633145b611bb1576040805160e560020a62461bcd0281526020600482015260136024820152600080516020613fb1833981519152604482015290519081900360640190fd5b600791909155600855565b611bc461179a565b600160a060020a031633600160a060020a03161480611bed5750600154600160a060020a031633145b611c2f576040805160e560020a62461bcd0281526020600482015260136024820152600080516020613fb1833981519152604482015290519081900360640190fd5b600e8054600160a060020a031916600160a060020a0392909216919091179055565b611c5961179a565b600160a060020a031633600160a060020a03161480611c825750600154600160a060020a031633145b611cc4576040805160e560020a62461bcd0281526020600482015260136024820152600080516020613fb1833981519152604482015290519081900360640190fd5b600955565b611cd16113c1565b15611d26576040805160e560020a62461bcd02815260206004820152601060248201527f5061757361626c653a2070617573656400000000000000000000000000000000604482015290519081900360640190fd5b60008281526014602052604090206009015442811115611d90576040805160e560020a62461bcd02815260206004820152601160248201527f506f6f6c206e6f74206f70656e20796574000000000000000000000000000000604482015290519081900360640190fd5b826013548110611dd8576040805160e560020a62461bcd02815260206004820152600f6024820152600080516020613fd1833981519152604482015290519081900360640190fd5b3332148015611ded5750611deb33612f15565b155b611e2b5760405160e560020a62461bcd028152600401808060200182810382526023815260200180613f4d6023913960400191505060405180910390fd5b600084815260146020526040902060050154600160a060020a0316611e9a576040805160e560020a62461bcd02815260206004820152601e60248201527f506f6f6c20697320666f72204554482c2075736520496e766573744554480000604482015290519081900360640190fd5b600084815260146020526040902060050154611ec090600160a060020a03163385612f21565b6000611ecd33858761317d565b90506000611edc86863361323f565b9050611ee986838361354e565b6000611f08611f0087611efb8a613736565b613781565b6127106137e6565b90506000611f168783613850565b6000898152601460209081526040808320600590810154600160a060020a03168452909152902054909150611f4b90836138b0565b600089815260146020818152604080842060058181018054600160a060020a03908116885291855292862096909655938d905291905254600190910154611f979291821691168361390d565b611fa18884613a56565b5050505050505050565b60095481565b60065481565b600c5481565b601254600160a060020a031681565b600a5481565b611fda61179a565b600160a060020a031633600160a060020a031614806120035750600154600160a060020a031633145b612045576040805160e560020a62461bcd0281526020600482015260136024820152600080516020613fb1833981519152604482015290519081900360640190fd5b601055565b6000806000836013548110612097576040805160e560020a62461bcd02815260206004820152600f6024820152600080516020613fd1833981519152604482015290519081900360640190fd5b505050600091825250601460205260409020600d810154600c82015460059092015460ff90911692600160a060020a0390911690565b600060165482111580156120f1575060008281526017602052604090206003015415155b801561124b575050600090815260176020908152604080832054835260149091529020600701544267ffffffffffffffff909116111590565b6121326113c1565b15612187576040805160e560020a62461bcd02815260206004820152601060248201527f5061757361626c653a2070617573656400000000000000000000000000000000604482015290519081900360640190fd5b6009543410156121e1576040805160e560020a62461bcd02815260206004820152601860248201527f4e65656420746f2070617920666f722074686520706f6f6c0000000000000000604482015290519081900360640190fd5b6121ea8a611191565b61223e576040805160e560020a62461bcd02815260206004820152601660248201527f4e6565642056616c696420455243323020546f6b656e00000000000000000000604482015290519081900360640190fd5b600160a060020a03841615806122585750612258846127a4565b6122ac576040805160e560020a62461bcd02815260206004820152601560248201527f4d61696e20636f696e206e6f7420696e206c6973740000000000000000000000604482015290519081900360640190fd5b6122b8600854426138b0565b891061230e576040805160e560020a62461bcd02815260206004820181905260248201527f506f6f6c206475726174696f6e2063616e27742062652074686174206c6f6e67604482015290519081900360640190fd5b61231a600854426138b0565b8567ffffffffffffffff161061237a576040805160e560020a62461bcd02815260206004820152601f60248201527f4c6f636b65642076616c75652063616e27742062652074686174206c6f6e6700604482015290519081900360640190fd5b868811156123bc5760405160e560020a62461bcd028152600401808060200182810382526033815260200180613ef46033913960400191505060405180910390fd5b60008711612414576040805160e560020a62461bcd02815260206004820152601060248201527f49742077696c6c206e6f7420776f726b00000000000000000000000000000000604482015290519081900360640190fd5b42821015612420574291505b8861242d426007546138b0565b1115612483576040805160e560020a62461bcd02815260206004820152601a60248201527f4e656564206d6f7265207468656e204d696e4475726174696f6e000000000000604482015290519081900360640190fd5b61248e8a3388612f21565b600081156124bc576124b76124b1611f006124a98d87613850565b600354613781565b846138b0565b6124be565b825b905060405180604001604052806040518060e001604052808e600160a060020a0316815260200133600160a060020a031681526020018d81526020018c81526020018b815260200188600160a060020a031681526020018a81525081526020016040518061010001604052808967ffffffffffffffff1681526020018a81526020018681526020018481526020016000815260200185815260200160001515815260200187151581525081525060146000601354815260200190815260200160002060008201518160000160008201518160000160006101000a815481600160a060020a030219169083600160a060020a0316021790555060208201518160010160006101000a815481600160a060020a030219169083600160a060020a0316021790555060408201518160020155606082015181600301556080820151816004015560a08201518160050160006101000a815481600160a060020a030219169083600160a060020a0316021790555060c08201518160060155505060208201518160070160008201518160000160006101000a81548167ffffffffffffffff021916908367ffffffffffffffff1602179055506020820151816001015560408201518160020155606082015181600301556080820151816004015560a0820151816005015560c08201518160060160006101000a81548160ff02191690831515021790555060e08201518160060160016101000a81548160ff02191690831515021790555050509050506015600033600160a060020a0316600160a060020a0316815260200190815260200160002060135490806001815401808255809150506001900390600052602060002001600090919091909150557fbe4222bc407cb12031595fc55b46531e46308d31e4572c9c4360d8ae790e1a318b6013546040518083600160a060020a031681526020018281526020019250505060405180910390a161278e60135460016138b0565b6013555050505050505050505050565b600d5481565b600f5460009060a060020a900460ff16158061124b5750600e54601154604080517fcc44919b000000000000000000000000000000000000000000000000000000008152600160a060020a03868116600483015260248201939093529051600093929092169163cc44919b91604480820192602092909190829003018186803b15801561121d57600080fd5b61283861179a565b600160a060020a031633600160a060020a031614806128615750600154600160a060020a031633145b6128a3576040805160e560020a62461bcd0281526020600482015260136024820152600080516020613fb1833981519152604482015290519081900360640190fd5b601155565b3433600a5480831015612905576040805160e560020a62461bcd02815260206004820152601260248201527f53656e642045544820746f20696e766573740000000000000000000000000000604482015290519081900360640190fd5b60408051848152600160a060020a038416602082015281517f3a32cdd14cdfd431946dfa0b2aef5ace661340411aaadcaee6aef6738d302326929181900390910190a16129506113c1565b156129a5576040805160e560020a62461bcd02815260206004820152601060248201527f5061757361626c653a2070617573656400000000000000000000000000000000604482015290519081900360640190fd5b60008481526014602052604090206009015442811115612a0f576040805160e560020a62461bcd02815260206004820152601160248201527f506f6f6c206e6f74206f70656e20796574000000000000000000000000000000604482015290519081900360640190fd5b846013548110612a57576040805160e560020a62461bcd02815260206004820152600f6024820152600080516020613fd1833981519152604482015290519081900360640190fd5b3332148015612a6c5750612a6a33612f15565b155b612aaa5760405160e560020a62461bcd028152600401808060200182810382526023815260200180613f4d6023913960400191505060405180910390fd5b600086815260146020526040902060050154600160a060020a031615612b1a576040805160e560020a62461bcd02815260206004820152601460248201527f506f6f6c206973206f6e6c7920666f7220455448000000000000000000000000604482015290519081900360640190fd5b6000612b2733348961317d565b90506000612b3688343361323f565b9050612b4388838361354e565b6000612b60611f0034611efb612710612b5b8e613736565b613850565b60008a815260146020526040902060010154909150612b8890600160a060020a031682613af9565b612b928983613a56565b505050505050505050565b612ba5612f11565b600160a060020a0316612bb661179a565b600160a060020a031614612c02576040805160e560020a62461bcd0281526020600482018190526024820152600080516020613f91833981519152604482015290519081900360640190fd5b600160a060020a038116612c4a5760405160e560020a62461bcd028152600401808060200182810382526026815260200180613f276026913960400191505060405180910390fd5b60008054604051600160a060020a03808516939216917f8be0079c531659141344cd1fd0a4f28419497f9722a3daafe3b4186f6b6457e091a360008054600160a060020a031916600160a060020a0392909216919091179055565b612cad61179a565b600160a060020a031633600160a060020a03161480612cd65750600154600160a060020a031633145b612d18576040805160e560020a62461bcd0281526020600482015260136024820152600080516020613fb1833981519152604482015290519081900360640190fd5b80612710811015610e42576003829055610e92565b612d3561179a565b600160a060020a031633600160a060020a03161480612d5e5750600154600160a060020a031633145b612da0576040805160e560020a62461bcd0281526020600482015260136024820152600080516020613fb1833981519152604482015290519081900360640190fd5b6012805474ff000000000000000000000000000000000000000019811660a060020a9182900460ff1615909102179055565b612dda612f11565b600160a060020a0316612deb61179a565b600160a060020a031614612e37576040805160e560020a62461bcd0281526020600482018190526024820152600080516020613f91833981519152604482015290519081900360640190fd5b600160a060020a03821660009081526005602052604081208054919055612e5f83838361390d565b505050565b6000816013548110612eae576040805160e560020a62461bcd02815260206004820152600f6024820152600080516020613fd1833981519152604482015290519081900360640190fd5b612eb7836118c2565b15612f08576000838152601460205260409020600d8101805460ff19166001908117909155815490820154600890920154612eff92600160a060020a0392831692169061390d565b6001915061118b565b50600092915050565b3390565b3b63ffffffff16151590565b8282828083600160a060020a031663dd62ed3e84306040518363ffffffff1660e060020a0281526004018083600160a060020a0316815260200182600160a060020a031681526020019250505060206040518083038186803b158015612f8657600080fd5b505afa158015612f9a573d6000803e3d6000fd5b505050506040513d6020811015612fb057600080fd5b50511015613008576040805160e560020a62461bcd02815260206004820152600c60248201527f6e6f20616c6c6f77616e63650000000000000000000000000000000000000000604482015290519081900360640190fd5b6000841161301557600080fd5b60006130218730613bdf565b604080517f23b872dd000000000000000000000000000000000000000000000000000000008152600160a060020a038981166004830152306024830152604482018990529151929350908916916323b872dd916064808201926020929091908290030181600087803b15801561309657600080fd5b505af11580156130aa573d6000803e3d6000fd5b505050506040513d60208110156130c057600080fd5b505060408051868152600160a060020a03808916602083015289168183015290517f1fecf4702e692891a7c2f0d328779b085efb5edd094fa5558bd5cd147a1679229181900360600190a16131158730613bdf565b61311f82876138b0565b14613174576040805160e560020a62461bcd02815260206004820152601d60248201527f7265636976652077726f6e6720616d6f756e74206f6620746f6b656e73000000604482015290519081900360640190fd5b50505050505050565b6040805160a081018252828152600160a060020a0385811660208084019182528385018781526000606086018181524260808801908152601680548452601786528984209851895595516001808a018054600160a060020a03191692909916919091179097559251600288015551600387015590516004909501949094553384526018815293832081548154808501835591855294842001939093559154909161322791906138b0565b6016819055613237906001613850565b949350505050565b600082818061324d87610f42565b600581111561325857fe5b141561329d576000868152601460205260409020600c015461327c90859087613c64565b5060008681526014602052604090206004015461329a908390613781565b90505b60016132a887610f42565b60058111156132b357fe5b14156134475760006132c48761204a565b92505050600160a060020a03811661334357600a5483101580156132ea5750600b548311155b61333e576040805160e560020a62461bcd02815260206004820152601b60248201527f496e766573746d656e7420616d6f756e74206e6f742076616c69640000000000604482015290519081900360640190fd5b6133ab565b600c5483101580156133575750600d548311155b6133ab576040805160e560020a62461bcd02815260206004820152601b60248201527f496e766573746d656e7420616d6f756e74206e6f742076616c69640000000000604482015290519081900360640190fd5b6133b485613d0a565b613408576040805160e560020a62461bcd02815260206004820152601a60248201527f4f6e6c7920504f5a20686f6c6465722063616e20696e76657374000000000000604482015290519081900360640190fd5b6000878152601460205260409020600c0154613425908690613dbd565b50600087815260146020526040902060030154613443908490613781565b9150505b683635c9adc5dea0000081106134fe576000868152601460205260409020600d0154610100900460ff161561348c5761348981683635c9adc5dea000006137e6565b90505b6000868152601460205260409020600801548111156134f5576040805160e560020a62461bcd02815260206004820152601d60248201527f4e6f7420656e6f75676820746f6b656e7320696e2074686520706f6f6c000000604482015290519081900360640190fd5b915061195b9050565b6040805160e560020a62461bcd02815260206004820152601f60248201527f57726f6e6720706f6f6c2073746174757320746f2043616c63546f6b656e7300604482015290519081900360640190fd5b6000613559846115a9565b1561369957613566611396565b1561366557600061357685611413565b505050505090506000613588866112dd565b50506012549394506135aa93869350600160a060020a03169150879050613e5b565b601254604080517f30e94541000000000000000000000000000000000000000000000000000000008152600160a060020a03858116600483015267ffffffffffffffff8516602483015260448201889052336064830152915191909216916330e945419160848083019260209291908290030181600087803b15801561362f57600080fd5b505af1158015613643573d6000803e3d6000fd5b505050506040513d602081101561365957600080fd5b50519250613694915050565b60008381526017602052604090206003015461368190836138b0565b6000848152601760205260409020600301555b6136d1565b6000848152601460209081526040808320548684526017909252909120600101546136d191600160a060020a0390811691168461390d565b600083815260176020908152604091829020600101548251868152600160a060020a039091169181019190915280820183905290517ffc9e7397d84595087ce6536b10914c5b003f581f8424b7dc97df1e252383ac719181900360600190a150505050565b60008061374283610f42565b600581111561374d57fe5b141561375c575060025461124e565b600161376783610f42565b600581111561377257fe5b141561124e575060065461124e565b600082613790575060006137e0565b8282028284828161379d57fe5b04146137dd5760405160e560020a62461bcd028152600401808060200182810382526021815260200180613f706021913960400191505060405180910390fd5b90505b92915050565b600080821161383f576040805160e560020a62461bcd02815260206004820152601a60248201527f536166654d6174683a206469766973696f6e206279207a65726f000000000000604482015290519081900360640190fd5b81838161384857fe5b049392505050565b6000828211156138aa576040805160e560020a62461bcd02815260206004820152601e60248201527f536166654d6174683a207375627472616374696f6e206f766572666c6f770000604482015290519081900360640190fd5b50900390565b6000828201838110156137dd576040805160e560020a62461bcd02815260206004820152601b60248201527f536166654d6174683a206164646974696f6e206f766572666c6f770000000000604482015290519081900360640190fd5b60006139198430613bdf565b60408051848152600160a060020a03808716602083015287168183015290519192507fe4d818e6f992efbd60db553f3edce819a199baec79a784b95c89bc8ee86f2584919081900360600190a183600160a060020a031663a9059cbb84846040518363ffffffff1660e060020a0281526004018083600160a060020a0316815260200182815260200192505050602060405180830381600087803b1580156139c057600080fd5b505af11580156139d4573d6000803e3d6000fd5b505050506040513d60208110156139ea57600080fd5b508190506139fb6124b18630613bdf565b14613a50576040805160e560020a62461bcd02815260206004820152601d60248201527f7265636976652077726f6e6720616d6f756e74206f6620746f6b656e73000000604482015290519081900360640190fd5b50505050565b600082815260146020526040902060080154613a729082613850565b6000838152601460205260409020600801819055613ac2576040805183815290517f5aa793a17b0774b891ce2b0dd5dbe8f04132e547df384ab1053d32470050b5fa9181900360200190a1610e92565b6040805183815290517f46074c56f8b8129e3ada6879521255be1596856f97bf16070e5cdd3a10dc1df79181900360200190a15050565b60408051828152600160a060020a038416602082015281517feca5ae7bd9109b0f7d228f3f8a8cc834a1f995af62df6dc226dc3ab3f38dc7b3929181900390910190a1604051600160a060020a03831680319183156108fc029084906000818181858888f19350505050158015613b74573d6000803e3d6000fd5b5082600160a060020a031631613b8a82846138b0565b14612e5f576040805160e560020a62461bcd02815260206004820152601d60248201527f546865207472616e7366657220646964206e6f7420636f6d706c697465000000604482015290519081900360640190fd5b600082600160a060020a03166370a08231836040518263ffffffff1660e060020a0281526004018082600160a060020a0316815260200191505060206040518083038186803b158015613c3157600080fd5b505afa158015613c45573d6000803e3d6000fd5b505050506040513d6020811015613c5b57600080fd5b50519392505050565b600082613c735750600161195b565b600e54604080517f1d759fb2000000000000000000000000000000000000000000000000000000008152600160a060020a038781166004830152602482018790526044820186905291519190921691631d759fb291606480830192600092919082900301818387803b158015613ce857600080fd5b505af1158015613cfc573d6000803e3d6000fd5b506001979650505050505050565b600f54600090600160a060020a0316613d255750600161124e565b600f54604080517fb217bb01000000000000000000000000000000000000000000000000000000008152600160a060020a0385811660048301529151919092169163b217bb01916024808301926020929190829003018186803b158015613d8b57600080fd5b505afa158015613d9f573d6000803e3d6000fd5b505050506040513d6020811015613db557600080fd5b505192915050565b600081613dcc575060016137e0565b600e54604080517f24bede3e000000000000000000000000000000000000000000000000000000008152600160a060020a03868116600483015260248201869052915191909216916324bede3e91604480830192600092919082900301818387803b158015613e3a57600080fd5b505af1158015613e4e573d6000803e3d6000fd5b5060019695505050505050565b60008111613e6857600080fd5b82600160a060020a031663095ea7b383836040518363ffffffff1660e060020a0281526004018083600160a060020a0316815260200182815260200192505050602060405180830381600087803b158015613ec257600080fd5b505af1158015613ed6573d6000803e3d6000fd5b505050506040513d6020811015613eec57600080fd5b505050505056fe504f5a20686f6c64657273206e65656420746f20686176652062657474657220707269636520286f72207468652073616d65294f776e61626c653a206e6577206f776e657220697320746865207a65726f2061646472657373536f6d65207468696e672077726f6e67207769746820746865206d736753656e646572536166654d6174683a206d756c7469706c69636174696f6e206f766572666c6f774f776e61626c653a2063616c6c6572206973206e6f7420746865206f776e6572417574686f72697a6174696f6e204572726f7200000000000000000000000000496e76616c696420506f6f6c2049440000000000000000000000000000000000a2646970667358221220f0f1c2537b7f061754417a8c2c2cac5676a68ec8e5a0db65d9ff4dab6649c9e764736f6c634300060c0033",
  "immutableReferences": {},
  "source": "// SPDX-License-Identifier: MIT\npragma solidity ^0.6.0;\n\nimport \"./InvestorData.sol\";\n\ncontract ThePoolz is InvestorData {\n    constructor() public {    }\n\n    function WithdrawETHFee(address payable _to) public onlyOwner {\n        _to.transfer(address(this).balance); // keeps only fee eth on contract //To Do need to take 16% to burn!!!\n    }\n\n    function WithdrawERC20Fee(address _Token, address _to) public onlyOwner {\n        uint256 temp = FeeMap[_Token];\n        FeeMap[_Token] = 0;\n        TransferToken(_Token, _to, temp);\n    }\n    \n}",
  "sourcePath": "/home/ashwin/Poolz/Poolz-Back/contracts/ThePoolz.sol",
  "compiler": {
    "name": "solc",
    "version": "0.6.12+commit.27d51765.Emscripten.clang"
  },
  "schemaVersion": "3.4.1",
  "updatedAt": "2021-06-06T18:30:22.580Z",
  "devdoc": {
    "kind": "dev",
    "methods": {
      "owner()": {
        "details": "Returns the address of the current owner."
      },
      "paused()": {
        "details": "Returns true if the contract is paused, and false otherwise."
      },
      "renounceOwnership()": {
        "details": "Leaves the contract without owner. It will not be possible to call `onlyOwner` functions anymore. Can only be called by the current owner. NOTE: Renouncing ownership will leave the contract without an owner, thereby removing any functionality that is only available to the owner."
      },
      "transferOwnership(address)": {
        "details": "Transfers ownership of the contract to a new account (`newOwner`). Can only be called by the current owner."
      }
    },
    "version": 1
  },
  "userdoc": {
    "kind": "user",
    "methods": {},
    "version": 1
  }
}