{
  "contractName": "WhiteList",
  "abi": [
    {
      "constant": false,
      "inputs": [
        {
          "name": "_Id",
          "type": "uint256"
        },
        {
          "name": "_Users",
          "type": "address[]"
        }
      ],
      "name": "RemoveAddress",
      "outputs": [],
      "payable": false,
      "stateMutability": "nonpayable",
      "type": "function"
    },
    {
      "constant": false,
      "inputs": [
        {
          "name": "_Subject",
          "type": "address"
        },
        {
          "name": "_Id",
          "type": "uint256"
        },
        {
          "name": "_Amount",
          "type": "uint256"
        }
      ],
      "name": "Register",
      "outputs": [],
      "payable": false,
      "stateMutability": "nonpayable",
      "type": "function"
    },
    {
      "constant": false,
      "inputs": [
        {
          "name": "_ChangeUntil",
          "type": "uint256"
        },
        {
          "name": "_Contract",
          "type": "address"
        }
      ],
      "name": "CreateManualWhiteList",
      "outputs": [
        {
          "name": "Id",
          "type": "uint256"
        }
      ],
      "payable": true,
      "stateMutability": "payable",
      "type": "function"
    },
    {
      "constant": true,
      "inputs": [
        {
          "name": "_Id",
          "type": "uint256"
        }
      ],
      "name": "isWhiteListReady",
      "outputs": [
        {
          "name": "",
          "type": "bool"
        }
      ],
      "payable": false,
      "stateMutability": "view",
      "type": "function"
    },
    {
      "constant": false,
      "inputs": [],
      "name": "renounceOwnership",
      "outputs": [],
      "payable": false,
      "stateMutability": "nonpayable",
      "type": "function"
    },
    {
      "constant": false,
      "inputs": [
        {
          "name": "_limit",
          "type": "uint256"
        }
      ],
      "name": "setMaxUsersLimit",
      "outputs": [],
      "payable": false,
      "stateMutability": "nonpayable",
      "type": "function"
    },
    {
      "constant": true,
      "inputs": [],
      "name": "WhiteListCount",
      "outputs": [
        {
          "name": "",
          "type": "uint256"
        }
      ],
      "payable": false,
      "stateMutability": "view",
      "type": "function"
    },
    {
      "constant": true,
      "inputs": [
        {
          "name": "",
          "type": "uint256"
        },
        {
          "name": "",
          "type": "address"
        }
      ],
      "name": "WhitelistDB",
      "outputs": [
        {
          "name": "",
          "type": "uint256"
        }
      ],
      "payable": false,
      "stateMutability": "view",
      "type": "function"
    },
    {
      "constant": true,
      "inputs": [],
      "name": "owner",
      "outputs": [
        {
          "name": "",
          "type": "address"
        }
      ],
      "payable": false,
      "stateMutability": "view",
      "type": "function"
    },
    {
      "constant": false,
      "inputs": [
        {
          "name": "_to",
          "type": "address"
        }
      ],
      "name": "WithdrawETHFee",
      "outputs": [],
      "payable": false,
      "stateMutability": "nonpayable",
      "type": "function"
    },
    {
      "constant": false,
      "inputs": [
        {
          "name": "_Id",
          "type": "uint256"
        },
        {
          "name": "_NewContract",
          "type": "address"
        }
      ],
      "name": "ChangeContract",
      "outputs": [],
      "payable": false,
      "stateMutability": "nonpayable",
      "type": "function"
    },
    {
      "constant": true,
      "inputs": [],
      "name": "MaxUsersLimit",
      "outputs": [
        {
          "name": "",
          "type": "uint256"
        }
      ],
      "payable": false,
      "stateMutability": "view",
      "type": "function"
    },
    {
      "constant": false,
      "inputs": [
        {
          "name": "_Id",
          "type": "uint256"
        },
        {
          "name": "_NewCreator",
          "type": "address"
        }
      ],
      "name": "ChangeCreator",
      "outputs": [],
      "payable": false,
      "stateMutability": "nonpayable",
      "type": "function"
    },
    {
      "constant": true,
      "inputs": [
        {
          "name": "",
          "type": "uint256"
        }
      ],
      "name": "WhitelistSettings",
      "outputs": [
        {
          "name": "Creator",
          "type": "address"
        },
        {
          "name": "ChangeUntil",
          "type": "uint256"
        },
        {
          "name": "Contract",
          "type": "address"
        },
        {
          "name": "isReady",
          "type": "bool"
        }
      ],
      "payable": false,
      "stateMutability": "view",
      "type": "function"
    },
    {
      "constant": false,
      "inputs": [
        {
          "name": "_Id",
          "type": "uint256"
        },
        {
          "name": "_Users",
          "type": "address[]"
        },
        {
          "name": "_Amount",
          "type": "uint256[]"
        }
      ],
      "name": "AddAddress",
      "outputs": [],
      "payable": false,
      "stateMutability": "nonpayable",
      "type": "function"
    },
    {
      "constant": false,
      "inputs": [
        {
          "name": "_newCost",
          "type": "uint256"
        }
      ],
      "name": "setWhiteListCost",
      "outputs": [],
      "payable": false,
      "stateMutability": "nonpayable",
      "type": "function"
    },
    {
      "constant": true,
      "inputs": [
        {
          "name": "_user",
          "type": "address"
        },
        {
          "name": "_id",
          "type": "uint256"
        }
      ],
      "name": "Check",
      "outputs": [
        {
          "name": "",
          "type": "uint256"
        }
      ],
      "payable": false,
      "stateMutability": "view",
      "type": "function"
    },
    {
      "constant": true,
      "inputs": [],
      "name": "WhiteListCost",
      "outputs": [
        {
          "name": "",
          "type": "uint256"
        }
      ],
      "payable": false,
      "stateMutability": "view",
      "type": "function"
    },
    {
      "constant": false,
      "inputs": [
        {
          "name": "_newOwner",
          "type": "address"
        }
      ],
      "name": "transferOwnership",
      "outputs": [],
      "payable": false,
      "stateMutability": "nonpayable",
      "type": "function"
    },
    {
      "inputs": [],
      "payable": false,
      "stateMutability": "nonpayable",
      "type": "constructor"
    },
    {
      "anonymous": false,
      "inputs": [
        {
          "indexed": true,
          "name": "previousOwner",
          "type": "address"
        }
      ],
      "name": "OwnershipRenounced",
      "type": "event"
    },
    {
      "anonymous": false,
      "inputs": [
        {
          "indexed": true,
          "name": "previousOwner",
          "type": "address"
        },
        {
          "indexed": true,
          "name": "newOwner",
          "type": "address"
        }
      ],
      "name": "OwnershipTransferred",
      "type": "event"
    },
    {
      "anonymous": false,
      "inputs": [
        {
          "indexed": false,
          "name": "_WhiteListCount",
          "type": "uint256"
        },
        {
          "indexed": false,
          "name": "_creator",
          "type": "address"
        },
        {
          "indexed": false,
          "name": "_contract",
          "type": "address"
        },
        {
          "indexed": false,
          "name": "_changeUntil",
          "type": "uint256"
        }
      ],
      "name": "NewWhiteList",
      "type": "event"
    }
  ],
  "bytecode": "0x608060405234801561001057600080fd5b5060048054600160a060020a031916331790556001600355600a600555662386f26fc1000060025561108c806100476000396000f3006080604052600436106100fb5763ffffffff7c010000000000000000000000000000000000000000000000000000000060003504166301ad22f981146101005780634f4329bc1461015c5780634fb2975d14610185578063715018a6146101b1578063716495b9146101c65780637f77f7b0146101de5780638a3a6947146101f35780638da5cb5b14610217578063a3da776814610248578063a9d44d6e1461026c578063ac6f10cc14610293578063adb8cec0146102a8578063b2fe3d8e146102cc578063b9313a9214610319578063c7e9d141146103ac578063cc44919b146103c4578063e36c15e6146103e8578063f2fde38b146103fd575b600080fd5b34801561010c57600080fd5b5060408051602060046024803582810135848102808701860190975280865261015a9684359636966044959194909101929182918501908490808284375094975061041e9650505050505050565b005b610173600435600160a060020a03602435166105bd565b60408051918252519081900360200190f35b34801561019157600080fd5b5061019d600435610716565b604080519115158252519081900360200190f35b3480156101bd57600080fd5b5061015a610735565b3480156101d257600080fd5b5061015a6004356107a3565b3480156101ea57600080fd5b506101736107bf565b3480156101ff57600080fd5b50610173600435600160a060020a03602435166107c5565b34801561022357600080fd5b5061022c6107df565b60408051600160a060020a039092168252519081900360200190f35b34801561025457600080fd5b5061015a600435600160a060020a03602435166107ee565b34801561027857600080fd5b5061015a600435600160a060020a036024351660443561092f565b34801561029f57600080fd5b50610173610a57565b3480156102b457600080fd5b5061015a600435600160a060020a0360243516610a5d565b3480156102d857600080fd5b506102e4600435610b9b565b60408051600160a060020a03958616815260208101949094529190931682820152911515606082015290519081900360800190f35b34801561032557600080fd5b5060408051602060046024803582810135848102808701860190975280865261015a96843596369660449591949091019291829185019084908082843750506040805187358901803560208181028481018201909552818452989b9a998901989297509082019550935083925085019084908082843750949750610bd49650505050505050565b3480156103b857600080fd5b5061015a600435610eba565b3480156103d057600080fd5b50610173600160a060020a0360043516602435610ed6565b3480156103f457600080fd5b50610173610f11565b34801561040957600080fd5b5061015a600160a060020a0360043516610f17565b6000828152600160205260408120548390600160a060020a0316331461047c576040805160e560020a62461bcd0281526020600482015260176024820152600080516020611021833981519152604482015290519081900360640190fd5b60008481526001602081905260409091200154849042106104d5576040805160e560020a62461bcd0281526020600482015260196024820152600080516020611001833981519152604482015290519081900360640190fd5b6003548590811061051e576040805160e560020a62461bcd0281526020600482015260086024820152600080516020611041833981519152604482015290519081900360640190fd5b845160055481111561057a576040805160e560020a62461bcd02815260206004820152601b60248201527f4d6178696d756d2055736572204c696d69742065786365656465640000000000604482015290519081900360640190fd5b600094505b85518510156105b4576105a987878781518110151561059a57fe5b90602001906020020151610f3a565b60019094019361057f565b50505050505050565b600080600254341015151561061c576040805160e560020a62461bcd02815260206004820152601060248201527f6574686572206e6f7420656e6f75676800000000000000000000000000000000604482015290519081900360640190fd5b506040805160808181018352338083526020808401888152600160a060020a0388811686880181815260006060808a018281526003805484526001808a52938d90209b518c5490881673ffffffffffffffffffffffffffffffffffffffff19918216178d5597518c85015593516002909b0180549151151560a060020a0274ff0000000000000000000000000000000000000000199c9097169190971617999099169390931790935582549182019092558651818152928301939093528186015292830187905292517f085c1c7e6b017b7388970f1dca2f883a787103be74e88f24c1ae63e692d5c47c9281900390910190a19392505050565b60009081526001602052604090206002015460a060020a900460ff1690565b600454600160a060020a0316331461074c57600080fd5b600454604051600160a060020a03909116907ff8df31144d9c2f0f6b59d69b8b98abd5459d07f2742c4df920b25aae33c6482090600090a26004805473ffffffffffffffffffffffffffffffffffffffff19169055565b600454600160a060020a031633146107ba57600080fd5b600555565b60035481565b600060208181529281526040808220909352908152205481565b600454600160a060020a031681565b6000828152600160205260409020548290600160a060020a0316331461084c576040805160e560020a62461bcd0281526020600482015260176024820152600080516020611021833981519152604482015290519081900360640190fd5b60008381526001602081905260409091200154839042106108a5576040805160e560020a62461bcd0281526020600482015260196024820152600080516020611001833981519152604482015290519081900360640190fd5b600354849081106108ee576040805160e560020a62461bcd0281526020600482015260086024820152600080516020611041833981519152604482015290519081900360640190fd5b505050600091825260016020526040909120600201805473ffffffffffffffffffffffffffffffffffffffff1916600160a060020a03909216919091179055565b600083151561093d57610a51565b600084815260016020526040902060020154600160a060020a031633146109ae576040805160e560020a62461bcd02815260206004820152601f60248201527f4f6e6c792074686520436f6e74726163742063616e2063616c6c207468697300604482015290519081900360640190fd5b600084815260208181526040808320600160a060020a0387168452909152902054821115610a26576040805160e560020a62461bcd02815260206004820152601f60248201527f536f7272792c206e6f20616c6f636174696f6e20666f72205375626a65637400604482015290519081900360640190fd5b50600083815260208181526040808320600160a060020a038616845290915290208054829003908190555b50505050565b60055481565b6000828152600160205260409020548290600160a060020a03163314610abb576040805160e560020a62461bcd0281526020600482015260176024820152600080516020611021833981519152604482015290519081900360640190fd5b6000838152600160208190526040909120015483904210610b14576040805160e560020a62461bcd0281526020600482015260196024820152600080516020611001833981519152604482015290519081900360640190fd5b60035484908110610b5d576040805160e560020a62461bcd0281526020600482015260086024820152600080516020611041833981519152604482015290519081900360640190fd5b505050600091825260016020526040909120805473ffffffffffffffffffffffffffffffffffffffff1916600160a060020a03909216919091179055565b6001602081905260009182526040909120805491810154600290910154600160a060020a039283169281169060a060020a900460ff1684565b6000838152600160205260408120548490600160a060020a03163314610c32576040805160e560020a62461bcd0281526020600482015260176024820152600080516020611021833981519152604482015290519081900360640190fd5b6000858152600160208190526040909120015485904210610c8b576040805160e560020a62461bcd0281526020600482015260196024820152600080516020611001833981519152604482015290519081900360640190fd5b60035486908110610cd4576040805160e560020a62461bcd0281526020600482015260086024820152600080516020611041833981519152604482015290519081900360640190fd5b8551600554811115610d30576040805160e560020a62461bcd02815260206004820152601b60248201527f4d6178696d756d2055736572204c696d69742065786365656465640000000000604482015290519081900360640190fd5b8551875114610daf576040805160e560020a62461bcd02815260206004820152603360248201527f4e756d626572206f662075736572732073686f756c642062652073616d65206160448201527f732074686520616d6f756e74206c656e67746800000000000000000000000000606482015290519081900360840190fd5b8651600010610e08576040805160e560020a62461bcd02815260206004820152601160248201527f4e65656420736f6d657468696e672e2e2e000000000000000000000000000000604482015290519081900360640190fd5b60008881526001602052604090206002015460a060020a900460ff161515610e5e576000888152600160205260409020600201805474ff0000000000000000000000000000000000000000191660a060020a1790555b600094505b8651851015610eb057610ea5888887815181101515610e7e57fe5b906020019060200201518888815181101515610e9657fe5b90602001906020020151610f5e565b600190940193610e63565b5050505050505050565b600454600160a060020a03163314610ed157600080fd5b600255565b6000811515610ee85750600019610f0b565b50600081815260208181526040808320600160a060020a03861684529091529020545b92915050565b60025481565b600454600160a060020a03163314610f2e57600080fd5b610f3781610f82565b50565b600091825260208281526040808420600160a060020a039093168452919052812055565b600092835260208381526040808520600160a060020a039094168552929052912055565b600160a060020a0381161515610f9757600080fd5b600454604051600160a060020a038084169216907f8be0079c531659141344cd1fd0a4f28419497f9722a3daafe3b4186f6b6457e090600090a36004805473ffffffffffffffffffffffffffffffffffffffff1916600160a060020a0392909216919091179055560054696d6520666f7220656469742069732066696e6973686564000000000000004f6e6c792063726561746f722063616e2061636365737300000000000000000057726f6e67204944000000000000000000000000000000000000000000000000a165627a7a723058202d3c6ccf2120a77deae097cf71f33da9fcf93ca21d1762050f07f7125416ff960029",
  "source": "// SPDX-License-Identifier: MIT\npragma solidity ^0.4.26;\n\nimport \"./WhiteListHelper.sol\";\nimport \"openzeppelin-solidity/contracts/ownership/Ownable.sol\";\n\ncontract WhiteList is WhiteListHelper, Ownable{\n    constructor() public {\n        WhiteListCount = 1; //0 is off\n        MaxUsersLimit = 10;\n        WhiteListCost = 0.01 ether;\n    }\n\n    //uint256 public SignUpCost;\n    uint256 public MaxUsersLimit;\n\n    modifier isBelowUserLimit(uint256 _limit) {\n        require(_limit <= MaxUsersLimit, \"Maximum User Limit exceeded\");\n        _;\n    }\n\n    function setMaxUsersLimit(uint256 _limit) external onlyOwner {\n        MaxUsersLimit = _limit;\n    }\n\n    function setWhiteListCost(uint256 _newCost) external onlyOwner {\n        WhiteListCost = _newCost;\n    }\n\n    function CreateManualWhiteList(\n        uint256 _ChangeUntil,\n        address _Contract\n    ) public payable returns (uint256 Id) {\n        require(msg.value >= WhiteListCost, \"ether not enough\");\n        WhitelistSettings[WhiteListCount] =  WhiteListItem(\n            /*_Limit == 0 ? uint256(-1) :*/\n            // _Limit,\n            msg.sender,\n            _ChangeUntil,\n            _Contract,\n            false\n        );\n        uint256 temp = WhiteListCount;\n        WhiteListCount++;\n        emit NewWhiteList(temp, msg.sender, _Contract, _ChangeUntil);\n        return temp;\n    }\n\n    function ChangeCreator(uint256 _Id, address _NewCreator)\n        external\n        OnlyCreator(_Id)\n        TimeRemaining(_Id)\n        ValidateId(_Id)\n    {\n        WhitelistSettings[_Id].Creator = _NewCreator;\n    }\n\n    function ChangeContract(uint256 _Id, address _NewContract)\n        external\n        OnlyCreator(_Id)\n        TimeRemaining(_Id)\n        ValidateId(_Id)\n    {\n        WhitelistSettings[_Id].Contract = _NewContract;\n    }\n\n    function AddAddress(uint256 _Id, address[] _Users, uint256[] _Amount)\n        public\n        OnlyCreator(_Id)\n        TimeRemaining(_Id)\n        ValidateId(_Id)\n        isBelowUserLimit(_Users.length)\n    {\n        require(_Users.length == _Amount.length, \"Number of users should be same as the amount length\");\n        require(_Users.length > 0,\"Need something...\");\n        if(!WhitelistSettings[_Id].isReady){\n            WhitelistSettings[_Id].isReady = true;\n        }\n        for (uint256 index = 0; index < _Users.length; index++) {\n            _AddAddress(_Id, _Users[index], _Amount[index]);\n        }\n    }\n\n    function RemoveAddress(uint256 _Id, address[] _Users)\n        public\n        OnlyCreator(_Id)\n        TimeRemaining(_Id)\n        ValidateId(_Id)\n        isBelowUserLimit(_Users.length)\n    {\n        for (uint256 index = 0; index < _Users.length; index++) {\n            _RemoveAddress(_Id, _Users[index]);\n        }\n    }\n\n    function Register(\n        uint256 _Id,\n        address _Subject,\n        uint256 _Amount\n    ) external {\n        if (_Id == 0) return;\n        require(\n            msg.sender == WhitelistSettings[_Id].Contract,\n            \"Only the Contract can call this\"\n        );\n        require(\n            WhitelistDB[_Id][_Subject] >= _Amount,\n            \"Sorry, no alocation for Subject\"\n        );\n        uint256 temp = WhitelistDB[_Id][_Subject] - _Amount;\n        WhitelistDB[_Id][_Subject] = temp;\n        assert(WhitelistDB[_Id][_Subject] == temp);\n    }\n}",
  "sourcePath": "/mnt/e/OneDrive/Poolz/WhiteList/contracts/WhiteList.sol",
  "compiler": {
    "name": "solc",
    "version": "0.4.26+commit.4563c3fc.Emscripten.clang"
  },
  "schemaVersion": "3.3.3",
  "updatedAt": "2021-02-19T16:28:32.764Z",
  "networkType": "ethereum",
  "devdoc": {
    "methods": {
      "renounceOwnership()": {
        "details": "Allows the current owner to relinquish control of the contract."
      },
      "transferOwnership(address)": {
        "details": "Allows the current owner to transfer control of the contract to a newOwner.",
        "params": {
          "_newOwner": "The address to transfer ownership to."
        }
      }
    }
  },
  "userdoc": {
    "methods": {
      "renounceOwnership()": {
        "notice": "Renouncing to ownership will leave the contract without an owner. It will not be possible to call the functions with the `onlyOwner` modifier anymore."
      }
    }
  }
}